:020000040800F2
:10000000680500204901000817650008251B000845
:10001000156500086D090008696900080000000006
:100020000000000000000000000000009B650008C8
:10003000650A000800000000996500089D65000839
:100040006301000863010008630100086301000800
:100050006301000863010008670A000863010008E3
:1000600063010008630100086301000863010008E0
:1000700063010008630100086301000863010008D0
:1000800063010008630100086301000863010008C0
:10009000630100086301000863010008750A000895
:1000A00063010008630100086301000863010008A0
:1000B000016600080D66000863010008630100087E
:1000C0006301000863010008630100086301000880
:1000D0006301000863010008630100086301000870
:1000E0006D0A00086301000863010008630100084D
:1000F0006301000863010008630100086301000850
:10010000630100086301000863010008630100083F
:10011000630100086301000863010008630100082F
:10012000630100086301000863010008630100081F
:10013000DFF810D000F008FC00480047C972000842
:10014000AFF3008068050020064880470648004756
:10015000FEE7FEE7FEE7FEE7FEE7FEE7FEE7FEE777
:10016000FEE7FEE7FF65000831010008202A04DBF6
:10017000203A21FA02F00021704721FA02F3D04020
:10018000C2F120029140084319467047D2B201E003
:1001900000F8012B491EFBD270470022F6E710B58C
:1001A00013460A4604461946FFF7F0FF204610BDE5
:1001B000F0B480EA0102D40F4200B2EB410F02D248
:1001C0000246084611464A0042D0C30DDDB2C1F3D3
:1001D000C752AD1A202D35DAC1F3160141F40002E1
:1001E00004B15242C5F1200602FA06F12A41104438
:1001F000B3EBD05F23D0C4B1012DA0EBC35009DC19
:10020000F0BC4FF0004202EAC352DBB200F500003E
:1002100000F087BA400000F1807000EBC350A0F1FD
:10022000807040EAD170490009E0490841EAC07194
:10023000A0EBC35000F50000400800EBC350F0BC39
:1002400000F066BA6142012202EB4101001BF6E7B1
:10025000F0BC704781F00041AAE780F00040A7E7BA
:1002600080EA010210B502F00043400022D04A00AB
:100270001FD0010E01EB1261C0F35600C2F356020B
:1002800040F4000042F40002A0FB022000047F3989
:10029000140400D0401C50EA124001D44000491E12
:1002A000C2B20C0604EBD010401C4008802A02D0D9
:1002B00003E0002010BD20F00100002900DA00203A
:1002C000184310BD2DE9FE4F804681EA0300C00FA0
:1002D0000C46009021F0004123F00045B8EB0200ED
:1002E000A94105D24046214690461C460B4602468F
:1002F00023F00040104347D0270DC7F30A00C3F393
:100300000A510290401A019040286BDAC3F313009F
:1003100040F4801B0098924620B10023D2EB030AE0
:1003200063EB0B0B01985946C0F14002504600F0B8
:10033000CEF906460D4650465946019A00F0D6F9C8
:1003400010EB08006141002487EA115284EAE77348
:100350001A4340D0009A62B3019A012A4FEA075229
:1003600015DC001B61EB02014FF0004202EA07526C
:10037000CDE90042001C41F5801132462B4600F0C9
:100380000DFA03B0BDE8F08F40462146F9E7001BA7
:1003900061EB0201001C41F5801300185B4120183D
:1003A000A2F5001747EB030140EAD570B6196D417D
:1003B00011E06D084FEA360645EAC0754FEA07526C
:1003C000001B61EB0201001C41F5801149084FEA56
:1003D00030000019514132462B4603B0BDE8F04FC2
:1003E00000F0CDB90098012240000023D0EB0202BA
:1003F00063EBE073009821464FEAE074B8EB00002D
:1004000061EB0401E9E783F000435BE781F0004121
:1004100058E72DE9FE4F81EA030404F0004421F07F
:10042000004100944FF0000B23F0004350EA010418
:100430005ED052EA03045BD0C3F30A54C1F30A55F9
:100440002C44A4F2F3340194A0FB0254C1F3130131
:1004500041F48011C3F3130343F4801301FB0244FE
:1004600000FB034E840A970A44EA815447EA835703
:10047000A4FB076802958D0A05FB07854FEA932CBC
:1004800004FB0C542705029D4FEA065847EA16372D
:10049000B5EB08056EEB070C870E920E47EA811745
:1004A00042EA8312A7FB0201B6EB0B0164EB0004E6
:1004B0002B0D43EA0C335E1844EB1C50DA465146D0
:1004C000E7FB0201C5F313044FEA0B3343EA14536D
:1004D0004FEA0432019C43EA0603A4F10C0402949F
:1004E000009CCDE900B400F059F903B0BDE8F08FED
:1004F00000200146F9E7C10F80EAE0700844CA070E
:100500009623002100F00DB90EB5C10F80EAE0700E
:100510000844CA07002140F233438DE80E000A4622
:100520000B4600F03BF903B000BD0EB540F233417D
:1005300002910021CDE900110A460B4600F02EF988
:1005400003B000BD00F0004220F00040C10DC0F338
:10055000160040F400007F2901DA00207047962938
:1005600003DCC1F19601C84001E096398840002AB9
:10057000F4D040427047C1F30A5210B5C1F31301E1
:1005800040F2FF3341F480119A4201DA002010BD9D
:1005900040F233439A42A2F2334203DC5242FFF765
:1005A000E5FD10BD904010BD30B5041E71F1000492
:1005B00004DB4FF00044404264EB0101141E73F170
:1005C000000405DB1C464FF00043524263EB04037A
:1005D0008B4208BF824230BD30B5041E71F1000469
:1005E00004DB4FF00044404264EB0101141E73F140
:1005F000000405DB1C464FF00043524263EB04034A
:10060000994208BF904230BD01F0004330B421F060
:10061000004150EA010206D00A0DA2F56072C1F352
:100620001301002A02DC30BC00207047440F44EA6A
:10063000C104C100E01830BC00EBC25000F068B843
:1006400030B50B46014600202022012409E021FAA2
:1006500002F59D4205D303FA02F5491B04FA02F59F
:100660002844151EA2F10102F1DC30BD2DE9F05F36
:100670000546002092469B46884606468146402411
:100680001BE02846414647462246FFF76FFD53468A
:100690005A46C01A914110D311461846224600F01E
:1006A00016F82D1A67EB01084F462246012000215B
:1006B00000F00DF817EB00094E41201EA4F10104D3
:1006C000DFDC484631462A464346BDE8F09F202AF3
:1006D00004DB203A00FA02F1002070479140C2F199
:1006E000200320FA03F3194390407047202A06DBC9
:1006F000CB17203A41FA02F043EAE07306E041FAF0
:1007000002F3D040C2F120029140084319467047DD
:100710000029A8BF7047401C490008BF20F0010015
:10072000704710B4B0FA80FC00FA0CF050EA0104F3
:1007300004BF10BC704749B1CCF1200421FA04F485
:1007400011FA0CF118BF012121430843A3EB0C015E
:10075000CB1D4FEA00614FEA102042BF002010BCC1
:10076000704700EBC35010440029A4BF10BC704771
:10077000401C490008BF20F0010010BC704710B5B4
:10078000141E73F1000408DA401C41F100019218B4
:100790005B411A4301D120F0010010BD2DE9F04D5D
:1007A00092469B4611B1B1FA81F202E0B0FA80F2B2
:1007B00020329046FFF78BFF04460F4640EA0A00BE
:1007C00041EA0B0153465A46084313D0114653EAF7
:1007D000010019D0C8F140025046FFF7C7FC05469A
:1007E0000E46504659464246FFF771FF084305D072
:1007F000012004E020463946BDE8F08D0020054385
:1008000046EAE0762C4337430A986305E40AA0EBF6
:1008100008000022FD0A44EA47540A3002D50020AD
:100820000146E9E7010510196941DDE908450019AC
:100830006941BDE8F04DA2E72DE9F04D81EA0304DE
:1008400004F0004B21F0004514464FF0000A23F05D
:10085000004150EA050220D054EA01021DD0C5F340
:100860000A570246C5F31303C1F31300C1F30A5636
:1008700040F4801543F48013A7EB0608101BD646FE
:1008800008F2FD3873EB050002D308F1010801E01E
:1008900092185B41B8F1000F03DA00200146BDE871
:1008A000F08D00204FF48011064684460EE0171BA1
:1008B00073EB050705D3121B63EB050306434CEAF4
:1008C000010C49084FEA300092185B4150EA0107D9
:1008D000EDD152EA030012D082EA040083EA050156
:1008E000084305D0101BAB4106D20122002306E0CD
:1008F00000224FF0004302E06FF0010253101AEBA8
:1009000006004CEB085110EB0A0041EB0B01BDE86F
:10091000F04DFFF734BFC1F30A52C1F3130140F2A7
:10092000FF3341F480119A4202DA002001467047F9
:1009300040F233439A42A2F2334202DC5242FFF7C2
:1009400015BCFFF7C4BE0000064C074D06E0E0688A
:1009500040F0010394E8070098471034AC42F6D306
:10096000FFF7EAFB648D0008848D0008FEE70000B5
:1009700070B516480024016821F4702101600168F7
:1009800041F400210160124D04E0641CE4B2012036
:1009900006F080FCD5F8300110B1C82CF5D30DE07D
:1009A000C82C0BD2002404E0641CE4B2012006F041
:1009B00071FCD5F8300118B1F02C04D3012070BDC2
:1009C000F02CF1D3FAE7002070BD000004080140CC
:1009D0000000214230B5114885B0816941F0040121
:1009E000816180694FF4805400F00400049001207C
:1009F000CDE9004002900220094D03906946284647
:100A000000F084F801222146284600F083F900F026
:100A100009F8FFF7ADFF05B030BD0000001002403F
:100A2000000801400D4810B5016821F470210160F3
:100A3000016841F440310160094C0020C4F8B00164
:100A400040F2EE2004F5D87406F024FC012020606A
:100A5000BDE810400F2006F01DBC00000408014056
:100A6000000021427047012000F044B84FF40040DC
:100A700000F040B8202000F03DB872B6FEE700005C
:100A80002DE9F0410446502006F0FEFB1448154EB7
:100A9000154F164D4FF48071202C08D0B4F5004F3F
:100AA00012D0012C1AD1BDE8F04100F02BB900F0B2
:100AB00029F904210E4800F025F9D5E90201324652
:100AC0003B46FFF7FFFB07E000F01CF9D5E9020108
:100AD00032463B46FFF797FCC5E90201BDE8F081CD
:100AE000000801409A9999999999B93F0800002006
:100AF00000140140044910B50A68024202D008609F
:100B0000FFF7BEFF10BD0000140401402DE9F84FAF
:100B1000DFF8C891002409F1040A0AF1040B234606
:100B20000F270BF1040ED1E00125A54006EA0502CE
:100B3000AA4276D1DFF8A8C14E68A6EB0C0866453C
:100B40002BD00DDC032E34D005DC36B3012E19D0AA
:100B5000022E2FD11BE0112E16D0122E2AD119E011
:100B6000B8F5881F19D006DCB8F5803F15D0B8F568
:100B7000801F1FD111E0B8F5001F0ED0B8F5041F7B
:100B800018D10AE0CB6815E0CB681B1D12E0CB68DA
:100B900008330FE0CB680C330CE08B682BB1012BD2
:100BA0004FF0080303D0456104E0042302E005612F
:100BB00000E00023FF2A01D8064601E000F1040608
:100BC0004FEA840501D9A5F12005D6F8008007FA7F
:100BD00005FC28EA0C0803FA05F548EA0508C6F8FA
:100BE00000804D68ED0070D53E4DAE6946F00106BF
:100BF000AE61AD6924F0030605F0010500953A4D9C
:100C000006EB050CDCF80850A607360F07FA06F8C5
:100C100025EA0805DFF8D480404503D14FF00008ED
:100C200025E052E0DFF8C880404502D14FF00108CE
:100C30001DE0DFF8C080404502D14FF0020816E009
:100C4000DFF8B480404502D14FF003080FE0DFF831
:100C5000AC80404502D14FF0040808E0DFF8A080E6
:100C6000404502D14FF0050801E04FF0060808FAB0
:100C700006F848EA0508CCF808804D68D9F8006005
:100C8000ED034D4601D5164300E096432E604D68B6
:100C9000DAF80060AD03554601D5164300E09643EF
:100CA0002E604D68DBF80060ED025D4601D516430D
:100CB00000E096432E604D68DEF80060AD02754698
:100CC00001D5164300E096432E60641C0A68164660
:100CD000E2407FF429AFBDE8F88F00000004014036
:100CE0000000111000100240000001400008014007
:100CF000000C0140001001400014014000180140A8
:100D0000001C0140C26821EA02030A4043EA024192
:100D1000016170470AB1016170470904FBE70000F7
:100D20000148806870470000180000200248816870
:100D3000027811448160704718000020074810B500
:100D4000016841F010010160032000F075F80020F7
:100D500000F006F800F024F8002010BD002002404A
:100D600070B50D4D04464FF47A712878B1FBF0F060
:100D70000A490968B1FBF0F000F0F8FA48B9102C04
:100D800007D200222146501E00F036F800206C6089
:100D900070BD012070BD000018000020240000205C
:100DA0000C4808B5816941F001018161816901F058
:100DB00001010091C16941F08051C161C06900F039
:100DC000805000900448416821F0E06141F00071DA
:100DD000416008BD0010024000000140002809DB0E
:100DE00000F01F02012191404009800000F1E02045
:100DF000C0F8001170470000F0B40E4B1B680C46A1
:100E0000C3F30223C3F10705042D00D90425191DDE
:100E1000072901D2002300E0DB1E012606FA05F1B6
:100E2000491E214099409E40761E16403143F0BC39
:100E300005F0B0BD0CED00E0064900F007020868BF
:100E40004FF6FF03184040EA0220034A10430860AF
:100E5000704700000CED00E00000FA052DE9F047B6
:100E60000F46050061D0434E306800F00700B842DD
:100E700009D2306820F0070038433060306800F055
:100E80000700B84251D128683B4C810712D5400772
:100E900003D5606840F4E06060602878000703D5FF
:100EA000606840F4605060606068A96820F0F000FD
:100EB000084360602878C00728D06868012810D0EF
:100EC0002168022810D0890700292EDA616821F0F4
:100ED000030101436160FFF723FF804641F2883937
:100EE0000DE021688903EFE78901EDE7FFF718FFBF
:100EF000A0EB0801494502D90320BDE8F0876068EE
:100F0000696800F00C00B0EB810FEFD1306800F0A1
:100F10000700B8420BD9306820F007003843306032
:100F2000306800F00700B84201D00120E5E72878DA
:100F3000400705D56068E96820F4E0600843606018
:100F40002878000706D56068296920F4605040EAD7
:100F5000C100606000F038F86168084AC1F303110D
:100F6000515CC8400649086006480068FFF7F8FE73
:100F70000020C2E700200240001002408C750008EB
:100F8000240000201C00002004480549006849682E
:100F9000044AC1F30221515CC8407047240000207C
:100FA000001002409C750008044805490068496823
:100FB000044AC1F3C221515CC8407047240000209C
:100FC000001002409C75000812A185B00FC98DE881
:100FD0000F0014A0144A006804905168134801F0EF
:100FE0000C03042B10D0082B0ED1C1F38343C9038B
:100FF0001DF803000AD5516804AAC1F34041515CB1
:101000000A4A5043B0FBF1F005B070470849484325
:10101000FAE7000002030405060708090A0B0C0D95
:101020000E0F1010010200000010024000127A00A2
:1010300000093D002DE9F84F040070D02078C04D24
:10104000C00749D06868C0F38100012807D06868EC
:10105000C0F38100022809D16868C00306D528685A
:10106000800339D560680028E7D035E06068B0F5C6
:10107000803F0BD010B1B0F5A02F11D0286820F41C
:1010800080302860286820F4802002E0286840F43E
:1010900080302860606890B1FFF742FE06460AE0A3
:1010A000286840F480202860F0E700BFFFF738FE92
:1010B000801B642873D828688003F7D50CE0FFF7FD
:1010C0002FFE064605E000BFFFF72AFE801B6428BE
:1010D000F0D828688003F7D420789A4E80074FF024
:1010E00001094FF0000839D5686810F00C0F07D0DF
:1010F0006868C0F38100022809D16868C00306D47B
:101100002868800714D52069012808D110E02069DB
:10111000B0B1C6F80090FFF703FE074605E00AE10C
:10112000FFF7FEFDC01B0228C4D828688007F7D54A
:101130002868616920F0F80040EAC10028600DE0ED
:10114000C6F80080FFF7ECFD074604E0FFF7E8FD76
:10115000C01B022823D828688007F7D4207800070E
:101160002CD57948A169D9B1C0F80090FFF7D8FD16
:10117000074604E0FFF7D4FDC01B02280FD8686AB9
:101180008007F7D571484FF4FA510068B0FBF1F0D1
:10119000009000BF0098411E0091FAD20EE080E05E
:1011A000C0F80080FFF7BCFD074604E0FFF7B8FD7C
:1011B000C01B022875D8686A8007F7D420784007DA
:1011C00060D5E8690027C00008D4E86940F0805085
:1011D000E861E869012700F0805000905C480168F0
:1011E000C90513D40168834641F480710160FFF79B
:1011F00097FD824606E000BFFFF792FDA0EB0A00D4
:1012000064284ED8DBF80000C005F5D5E068012859
:101210000AD008B1052813D0286A20F001002862FE
:10122000286A20F0040002E0286A40F001002862E9
:10123000E06841F2883B98B1FFF772FD82460BE00F
:10124000286A40F004002862EEE700BFFFF768FD5F
:10125000A0EB0A0159455AD8286A8007F6D50CE058
:10126000FFF75EFD824605E0FFF75AFDA0EB0A019D
:1012700059454CD8286A8007F6D41FB1E86920F098
:101280008050E861E06988B36968C1F3810102298F
:1012900044D00228C6F8608004D0FFF741FD044620
:1012A00038E034E0FFF73CFD074604E0FFF738FD87
:1012B000C01B02282BD828688001F7D4206AB0F51B
:1012C000803F05D16868A16820F400300843686059
:1012D000D4E908010843696821F47411084368607F
:1012E000C6F86090FFF71CFD044606E025E000BF4D
:1012F000FFF716FD001B022809D828688001F7D5E2
:101300001BE000BFFFF70CFD001B022802D90320E1
:10131000BDE8F88F28688001F4D40EE00128F7D0EA
:101320006868226A00F48031914204D1616A00F455
:101330007010884201D00120EAE70020E8E70000B1
:10134000001002400000424280044242240000207B
:10135000007000404FF0E0210428086903D020F01D
:1013600004000861704740F00400FAE710B5401E21
:10137000B0F1807F01D3012010BD4FF0E024606107
:101380000F21601705F006FB0020A06107202061F7
:10139000002010BD7047704710B590F83C20012A1E
:1013A00022D0012280F83C20CA688C6822F4407266
:1013B00022434C6822F4806222430C6822F40062CB
:1013C00022430C6922F4805222434C6922F40052D9
:1013D0002243C969002322F480420A4301684A6417
:1013E00080F83C30002010BD022010BD70B590F890
:1013F0003C20012A2CD0012480F83C40022280F8B5
:101400003D2003685A689D6822F070060A683243DE
:101410005A60104B02689A420ED00F4B9A420BD082
:10142000B2F1804F08D00D4B9A4205D00C4B9A4236
:1014300002D00C4B9A4204D1496825F0800319432D
:10144000916080F83D40002180F83C10084670BD56
:10145000022070BD002C0140003401400004004017
:1014600000080040000C004010B5040003D094F8C0
:101470003D0010B107E0012010BD002084F83C00C1
:10148000204600F01FF8022084F83D00211D20684E
:1014900005F0C2F8012084F8460084F83E0084F884
:1014A0003F0084F8400084F8410084F8420084F84A
:1014B000430084F8440084F8450084F83D0000208F
:1014C00010BD000008B51A4A01681A48914208D1B7
:1014D000816941F400618161806900F400600090DD
:1014E00008BDB1F1804F14D0134A9142F8D1C169BF
:1014F00041F00201C161C069002200F002000090C9
:1015000011461D20FFF778FC1D20BDE80840FFF7BD
:1015100065BCC16941F00101C161C069002200F0F0
:101520000100009011461C20FFF766FC1C20ECE730
:10153000002C0140001002400004004090F83D10D3
:10154000012901D001207047022180F83D10016877
:10155000CA6842F00102CA6000680E4988420ED093
:101560000D4988420BD0B0F1804F08D00B4988421A
:1015700005D00B49884202D00A49884204D18168CB
:1015800001F00701062903D0016841F00101016063
:1015900000207047002C014000340140000400404E
:1015A00000080040000C004070B5044690F83C0074
:1015B000012817D0012584F83C50022084F83D0012
:1015C0002068826822F0770222F47F4282600868F5
:1015D000502830D00DDC20284DD005DC98B31028E1
:1015E0003BD148E0022070BD302844D0402834D19F
:1015F00039E0602828D0702806D0B0F5805F2CD064
:10160000B0F5005F29D10AE0CB68D1E9012120685B
:1016100005F055F82068816841F0770109E0CB6852
:10162000D1E90121206805F04AF82068816841F479
:101630008041816011E0CA684968206805F014F9AA
:101640005021206807E016E0CA684968206805F064
:101650001CF96021206805F03CF884F83D5000201A
:1016600084F83C0070BDCA684968206805F0FCF841
:1016700040212068EFE7226801461046EBE77047FB
:1016800070B50446006801694FF00005C943890739
:1016900015D4C168C943890711D4E91E016101202D
:1016A0002077206880698007204602D0FFF7E7FF97
:1016B00004E000F0BFF8204600F04EF925772068DE
:1016C0000169C943490717D4C168C943490713D4FD
:1016D0006FF004010161022020772068806910F416
:1016E000407F204602D0FFF7CAFF04E000F0A2F8D6
:1016F000204600F031F9257720680169C9430907C0
:1017000016D4C168C943090712D46FF008010161FA
:10171000042020772068C0698007204602D0FFF7A8
:10172000AEFF04E000F086F8204600F015F92577BA
:1017300020680169C943C90617D4C168C943C906ED
:1017400013D46FF010010161082020772068C06970
:1017500010F4407F204602D0FFF791FF04E000F034
:1017600069F8204600F0F8F8257720680169C94338
:10177000C90708D1C168C943C90704D1891E0161DD
:10178000204600F045F920680169C943090609D4DB
:10179000C168C943090605D46FF080010161204684
:1017A000FFF7F8FD20680169C943490609D4C168FB
:1017B000C943490605D46FF040010161204600F09D
:1017C00047F920680169C94389060BD4C168C94338
:1017D000890607D46FF0200101612046BDE8704002
:1017E000FFF7D9BD70BD000000B585B000210091A4
:1017F00001910291039100680B49884212D10B4874
:10180000816941F0040181618069694600F004004A
:1018100004904FF40060009002200190039004486F
:10182000FFF774F905B000BD002C01400010024024
:1018300000080140704770B5044690F83C000D4622
:1018400001280AD0012084F83C0042B1042A18D0B3
:10185000082A2AD00C2A4DD139E0022070BD206818
:1018600004F040FF2068816941F00801816120682F
:10187000816921F004018161206881692A6911432D
:1018800011E0206804F05EFF2068816941F4006186
:1018900081612068816921F48061816120688169AA
:1018A0002A6941EA0221816124E0206804F080FF76
:1018B0002068C16941F00801C1612068C16921F057
:1018C0000401C1612068C1692A69114311E02068DF
:1018D00004F0A2FF2068C16941F40061C161206881
:1018E000C16921F48061C1612068C1692A6941EA46
:1018F0000221C161002084F83C0070BD10B50400D5
:1019000003D094F83D0010B107E0012010BD002085
:1019100084F83C00204600F01EF8022084F83D00C8
:10192000211D206804F078FE012084F8460084F828
:101930003E0084F83F0084F8400084F8410084F8B9
:10194000420084F8430084F8440084F8450084F899
:101950003D00002010BD70477047000010B50446E0
:10196000022249B104290ED0082913D094F841006D
:10197000012816D0012010BD94F83E000128F9D1AD
:1019800084F83E200FE094F83F000128F2D184F85B
:101990003F2008E094F840000128EBD184F8402073
:1019A00001E084F841200122206804F07BFE134905
:1019B0002068134A884201D0904203D1436C43F41B
:1019C00000434364206888420DD090420BD0B0F1B0
:1019D000804F08D00B49884205D00B49884202D07D
:1019E0000A49884204D1816801F00701062903D021
:1019F000016841F001010160002010BD002C014090
:101A0000003401400004004000080040000C004089
:101A100070B50C490C4C884213D1D4E90201002264
:101A20000A4BFEF7F6FC05460E46B4F90200FEF737
:101A30006BFD2A463346FEF7B7FD02D26088401C94
:101A4000608070BDC8000020080000200000244015
:101A5000704770B5040004D094F83D00002510B123
:101A600006E0012070BD84F83C50204600F022F8CA
:101A7000242084F83D002068C16821F40051C16031
:101A8000204604F015FF2068016921F490410161AE
:101A90002068416921F02A0141612068C16841F450
:101AA0000051C1602564202084F83D0084F83E0088
:101AB000002070BD30B585B00024009401940294DC
:101AC000039400681449884224D11448816941F480
:101AD00080418161816901F480410491816941F013
:101AE0000401816180690E4D00F0040004904FF400
:101AF0000070009002200190032003906946284660
:101B0000FFF704F82815CDE9000469462846029439
:101B1000FEF7FCFF05B030BD003801400010024068
:101B200000080140FEE700002DE9F0431B4C814610
:101B30000025208866884643A088A0F5D041043956
:101B400002D1A07901280CD00021084604F0A8F8A1
:101B500004F004FB12484FF480734115114C8022AD
:101B600018E00020A0712A2767814FF02B08A4F805
:101B70000C80014604F094F80120A071A4F80A80BA
:101B8000A781E5E703614161C4F800904261026109
:101B900001616D1CB542F5D3BDE8F083540100200E
:101BA000001001400C0C01402DE9F04F4A492A2455
:101BB0002B25898845F2105A4FF4305B4FF4285E8C
:101BC0004FF448764FF0F00C49F241394FF4A073CE
:101BD00045F210374FF4F07280B13F484FF00108E2
:101BE000494580F806800380A0F802C001D0B942C0
:101BF0003ED12C2606814481858157E036484FF03E
:101C00000008494580F80680A0F800C0438006D04F
:101C1000A1F5D04CBCF1040C01D0B9420CD12C265A
:101C200006814481A1F5D0448581043C01D0B942AC
:101C300044D10380428041E0514507D1A0F808B06B
:101C4000A0F80AE04FF42C5181810EE0A1F5C853B1
:101C5000633B06D022210181202141812121818104
:101C60002CE02C210181458184810280468025E081
:101C7000A1F5D04CBCF1040C09D051450BD1A0F812
:101C800008B0A0F80AE04FF42C54848121E02C26FF
:101C90000681458109E0A1F5C85CBCF1630C12D056
:101CA000222404812124448120248481A1F5D0446C
:101CB000043C01D0B94201D102804380BDE8F04F1D
:101CC000002003F045BE4FF02C0CA0F808C0448162
:101CD000858106804280E9E7540100202DE9FE4F0E
:101CE000161ACDE900104FF000085D1A47464FF074
:101CF000FF30002E02DD4FF0010102E003D14FF072
:101D000000018B4602E08346C6F10006002D02DD8D
:101D10004FF0010002E003D14FF00000824602E0E4
:101D20008246C5F10005AE4201DD344600E02C4696
:101D3000601C4FF00009029018E0009881B20198F1
:101D400080B200F019F8B0442F44A04504DD01989A
:101D5000A8EB040858440190A74203DD00983F1BFC
:101D60005044009009F101001FFA80F90299894559
:101D7000E3DDBDE8FE8F000000B503F091FF04F045
:101D8000EDF907484FF48071016141154161054A41
:101D9000054B12881A60802242610261016100BD18
:101DA00000100140280000200C0C0140F0B51C463A
:101DB00015460E4607460B46FFF790FF3A46234668
:101DC00031461046FFF78AFF23462A461946384611
:101DD000FFF784FF2A4623463146BDE8F04010460F
:101DE000FFF77CBF2DE9F74F07468F4881B0DFF83A
:101DF0003CA2818802983E0A00F0FF094FEA1028B1
:101E0000F8B200908848A1F513434FF4807B4289D3
:101E10004FF40074413B18D00546A1F5A640103898
:101E200013D0A1F5AA40103833D02846A1F5C856E2
:101E300083790088C01B401E633E5ED0A1F5D0466A
:101E4000043E7CD0012B7BD0CEE0104604F074F928
:101E5000774DC5F810B06C615746CAF8006080260F
:101E60006E612E612C61C5F810B06C610098CAF8E3
:101E700000006E612E612C616B48808904F05CF972
:101E8000C5F810B06C61C7F800806E612E612C61DE
:101E90002DE0104604F050F9654DC5F810B06C61A6
:101EA0005746CAF8006080266E612E612C615E483C
:101EB0004089401C80B204F03FF9C5F810B06C6155
:101EC000009838606E612E612C615748808904F05B
:101ED00033F9C5F810B06C61C7F800806E612E61EF
:101EE0002C6151488089401C80B204F025F9C5F866
:101EF00010B06C61C7F8009071E003B987B210466A
:101F000004F01AF94A4DC5F810B06C61380ACAF8E5
:101F1000000080266E612E612C61C5F810B06C61E6
:101F2000F9B2CAF800106E612E612C61C5F810B0CC
:101F30006C61CAF800006E612E612C6101E022E044
:101F400051E0C5F810B06C61CAF800106E612E61E6
:101F50002C613548808904F0EFF8C5F810B06C6149
:101F60005146CAF800806E612E612C61C5F810B030
:101F70006C61CAF800906E612E612C61C5F810B0DA
:101F80006C61404622E0012B00D187B2104604F07C
:101F9000D3F8274DC5F810B06C61390ACAF80010A3
:101FA00080266E612E612C61C5F810B06C61F9B2AB
:101FB000CAF800106E612E612C611B48808904F004
:101FC000BBF8C5F810B06C614046514608606E61C0
:101FD0002E612C61C5F810B06C61C1F800906E6183
:101FE0002E612C6108E087B23946104604F0BCF837
:101FF000A889029904F0B8F80D48C0F814B04461FB
:1020000009490989CAF80010802141610161046110
:10201000C0F810B04461039ACAF800204161016120
:102020000461BDE8FF8F0000540100200C0C01404A
:10203000001001402DE9F84F274E1D468146B38818
:102040000A9FA3F5D040043802D1B07901280BD003
:10205000A2EB0900401C86B20C464FF48078DFF8F2
:102060007CA04FF4007B33E034880846A11AA4EB2F
:1020700009030024B4712A462A2474812B25491EA1
:102080005B1EB58189B29BB20097FFF7D3FF012099
:10209000B0717581B481BDE8F88F2146484603F0E0
:1020A000FFFD04F05BF8002150465A46DFF830C0CF
:1020B000802309E0C0F810804261CCF800704361D1
:1020C00003610261491C89B2B142F3D3641CA4B21A
:1020D000AC42E2D9DFE700005401002000100140CB
:1020E0000C0C01402DE9F05F322005F0CDF8012104
:1020F000002004F039F8322005F0C6F8002003F083
:10210000D1FBFE4D4FF4807449F24138A88046F669
:10211000040945F2103A45F21057FF2806D3A0F5FE
:102120007F41FF3902D0B0F5134F6DD1D32004F0B9
:1021300003F803F07FFB03F07DFB03F07BFB4FF61E
:10214000FF7606EA0020A88003F074FBA988084304
:10215000A880404558D0BF2003F0EEFF03F06AFB93
:1021600003F068FB03F066FB03F064FB06EA002063
:10217000A88003F05FFBA9880843A880484543D0A6
:10218000D42003F0D9FF03F055FB03F053FB03F019
:1021900051FB06EA0020A88003F04CFBA988084305
:1021A000A880504530D04FF45A4003F0C5FF03F0EB
:1021B00041FB4FF45B4003F0BFFF03F03BFB06EA3B
:1021C0000020A8804FF45C4003F0B6FF03F032FB20
:1021D000A9880843A880B0F5004F7DD0B84213D03D
:1021E000A12003F0A9FF03F025FBA88003F022FB48
:1021F00006EA0020A88003F01DFBA9880843A0F58B
:10220000AE41A880613968D080B2404566D1CF2008
:1022100003F092FF002003F07DFFC12003F07AFF5E
:10222000302003F077FFED2003F086FF642003F0F9
:1022300071FF032003F06EFF122003F06BFF81207B
:1022400003F068FFE82003F077FF852003F062FFCA
:10225000102003F05FFF7A2003F05CFFCB2003F037
:102260006BFF392003F056FF2C2003F053FF0020B2
:1022700003F050FF342003F04DFF022003F04AFF2B
:10228000F72003F059FF202003F044FFEA2003F079
:1022900053FF002003F03EFF002003F03BFFC0206F
:1022A00003F04AFF1B2003F035FFC12003F044FF79
:1022B000012003F02FFFC52003F03EFF302003F084
:1022C00029FF302003F026FFC72003F035FFB72099
:1022D00003F020FF362002E0B1E0ABE0B2E003F013
:1022E0002BFF482003F016FF3A2003F025FF55206E
:1022F00003F010FFB12003F01FFF002003F00AFFDE
:102300001A2003F007FFB62003F016FF0A2003F09F
:1023100001FFA22003F0FEFEF22003F00DFF0020DB
:1023200003F0F8FE262003F007FF012003F0F2FE81
:10233000E02003F001FF0F2003F0ECFE2A2003F061
:10234000E9FE282003F0E6FE082003F0E3FE0E205D
:1023500003F0E0FE082003F0DDFE542003F0DAFE77
:10236000A92003F0D7FE432003F0D4FE0A2003F097
:10237000D1FE0F2003F0CEFE002003F0CBFE0020A4
:1023800003F0C8FE002003F0C5FE002003F0C2FEEB
:10239000E12003F0D1FE002003F0BCFE152003F085
:1023A000B9FE172003F0B6FE072003F0B3FE11209C
:1023B00003F0B0FE062003F0ADFE2B2003F0AAFED2
:1023C000562003F0A7FE3C2003F0A4FE052003F0F6
:1023D000A1FE102003F09EFE0F2003F09BFE3F2085
:1023E00003F098FE3F2003F095FE0F2003F092FECD
:1023F0002B2003F0A1FE002003F08CFE002003F050
:1024000089FE012003F086FE3F2003F083FE2A2090
:1024100003F092FE002003F07DFE002003F07AFE20
:10242000002003F077FEEF2003F074FE112003F08C
:1024300083FEB1E041F66310A88003F06EB8AF8070
:1024400001F02EB848457DD1112003F075FE14200F
:1024500004F01AFFD02003F06FFE072003F05AFEAD
:10246000422003F057FE1D2003F054FED12003F05C
:1024700063FE002003F04EFE1A2003F04BFE0920FD
:1024800003F048FED22003F057FE012003F042FE85
:10249000222003F03FFEC02003F04EFE102003F088
:1024A00039FE3B2003F036FE002003F033FE02200D
:1024B00003F030FE112003F02DFEC52003F03CFE9A
:1024C000032003F027FEC82003F036FE002003F0AF
:1024D00021FE252003F01EFE212003F01BFE052017
:1024E00003F018FE002003F015FE0A2003F012FE90
:1024F000652003F00FFE252002E0000054010020BB
:1025000003F008FE772003F005FE502003F002FEE2
:102510000F2003F0FFFD002003F0FCFDF82003F086
:102520000BFE012003F0F6FDFE2003F005FE002067
:1025300003F0F0FD022003F0EDFD202003F0FCFD90
:10254000362000E02EE003F0F7FD082003F0E2FD66
:102550003A2003F0F1FD552003F0DCFD2B2003F0C1
:10256000EBFD002003F0D6FD002003F0D3FD012099
:1025700003F0D0FD3F2003F0CDFD2A2003F0DCFD69
:10258000002003F0C7FD002003F0C4FD012003F08C
:10259000C1FDDF2003F0BEFD782004F075FE292088
:1025A00001F0FBBE50457CD1ED2003F0C5FD0120BC
:1025B00003F0B0FDFE2003F0ADFDEE2003F0BCFD06
:1025C000DE2003F0A7FD212003F0A4FDF12003F09D
:1025D000B3FD012003F09EFDDF2003F0ADFD1020D0
:1025E00003F098FDC42003F0A7FD8F2003F092FDB7
:1025F000C62003F0A1FD002003F08CFDE22003F0D3
:1026000089FDE22003F086FDE22003F083FDBF2078
:1026100003F092FDAA2003F07DFDB02003F08CFDB5
:102620000D2003F077FD002003F074FD0D2003F072
:1026300071FD002003F06EFD112003F06BFD002002
:1026400003F068FD192003F065FD002003F062FD32
:10265000212003F05FFD002003F05CFD2D2003F03E
:1026600059FD002003F056FD3D2003F053FD0020EE
:1026700003F050FD5D2003F04DFD002003F04AFD06
:102680005D2003F047FD002003F044FDB12003F07E
:1026900053FD802003F03EFD002003F03BFD8B2026
:1026A00000E0FCE303F036FD002003F033FD96204C
:1026B00003F030FD002003F02DFDB22003F03CFDBF
:1026C000002003F027FD002003F024FD022003F08A
:1026D00021FD002003F01EFD032003F01BFD002060
:1026E00003F018FDB32003F027FD002003F012FDD6
:1026F000002003F00FFD002003F00CFD002003F08C
:1027000009FD002003F006FD002003F003FD00207A
:1027100003F000FD002003F0FDFC002003F0FAFCB4
:10272000002003F0F7FC002003F0F4FC002003F08D
:10273000F1FC002003F0EEFC002003F0EBFC002095
:1027400003F0E8FC002003F0E5FC002003F0E2FCCD
:10275000002003F0DFFC002003F0DCFC002003F08D
:10276000D9FC002003F0D6FC002003F0D3FC0020AD
:1027700003F0D0FC002003F0CDFCB42003F0DCFC1F
:102780008B2003F0C7FC002003F0C4FC962003F06C
:10279000C1FC002003F0BEFCA12003F0BBFC002024
:1027A00003F0B8FCB52003F0C7FC022003F0B2FC34
:1027B000002003F0AFFC032003F0ACFC002003F08A
:1027C000A9FC042003F0A6FC002003F0A3FCB62023
:1027D00003F0B2FC002003F09DFC002003F09AFC03
:1027E000B72003F0A9FC002003F094FC002003F0C4
:1027F00091FC3F2003F08EFC002003F08BFC5E2058
:1028000003F088FC002003F085FC642003F082FCC8
:10281000002003F07FFC8C2003F07CFC002003F000
:1028200079FCAC2003F076FC002003F073FCDC2084
:1028300003F070FC002003F06DFC702003F06AFCD4
:10284000002003F067FC902003F064FC002003F0FC
:1028500061FCEB2003F05EFC002003F05BFCDC205D
:1028600003F058FC002003F055FCB82003F064FC92
:10287000002003F04FFC002003F04CFC002003F08C
:1028800049FC002003F046FC002003F043FC00203C
:1028900003F040FC002003F03DFC002003F03AFC74
:1028A000BA2003F049FC242003F034FC002003F09C
:1028B00031FC002003F02EFC002003F02BFCC12093
:1028C00003F03AFC202003F025FC002003F022FC5A
:1028D000542003F01FFC002003F01CFCFF2003F039
:1028E00019FC002003F016FCC22003F025FC0A208E
:1028F00003F010FC002003F00DFC042003F00AFCA0
:10290000002003F007FCC32003F016FC3C2003F07A
:1029100001FC002003F0FEFB3A2003F0FBFB00204B
:1029200003F0F8FB392003F0F5FB002003F0F2FB85
:10293000372003F0EFFB002003F0ECFB3C2003F01A
:10294000E9FB002003F0E6FB362003F0E3FB002068
:1029500003F0E0FB322003F0DDFB002003F0DAFBA4
:102960002F2003F0D7FB002003F0D4FB2C2003F032
:10297000D1FB002003F0CEFB292003F0CBFB00208D
:1029800003F0C8FB262003F0C5FB002003F0C2FBC8
:10299000242003F0BFFB002003F0BCFB242003F045
:1029A000B9FB002003F0B6FB232003F0B3FB0020AB
:1029B00003F0B0FB3C2003F0ADFB002003F0AAFBCA
:1029C000362003F0A7FB002003F0A4FB322003F025
:1029D000A1FB002003F09EFB2F2003F09BFB0020B7
:1029E00003F098FB2C2003F095FB002003F092FBF2
:1029F000292003F08FFB002003F08CFB262003F03E
:102A000089FB002003F086FB242003F083FB0020D9
:102A100003F080FB242003F07DFB002003F07AFB11
:102A2000232003F077FB002003F074FBC42003F0A5
:102A300083FB622003F06EFB002003F06BFB05209C
:102A400003F068FB002003F065FB842003F062FBC9
:102A5000002003F05FFBF02003F05CFB002003F09C
:102A600059FB182003F056FB002003F053FBA42071
:102A700003F050FB002003F04DFB182003F04AFB4D
:102A8000002003F047FB502003F044FB002003F03C
:102A900041FB0C2003F03EFB002003F03BFB172022
:102AA00003F038FB002003F035FB952003F032FBE8
:102AB000002003F02FFBF32003F02CFB002003F099
:102AC00029FBE62003F026FB002003F023FBC520B2
:102AD00003F032FB322003F01DFB002003F01AFB51
:102AE000442003F017FB002003F014FB652003F0E3
:102AF00011FB002003F00EFB762003F00BFB0020FF
:102B000003F008FB882003F005FB002003F002FB24
:102B1000C62003F011FB202003F0FCFA002003F094
:102B2000F9FA172003F0F6FA002003F0F3FA012077
:102B300003F0F0FA002003F0EDFAC72003F0FCFAEE
:102B4000002003F0E7FA002003F0E4FA002003F08D
:102B5000E1FA002003F0DEFAC82003F0EDFA0020CD
:102B600003F0D8FA002003F0D5FA002003F0D2FADF
:102B7000002003F0CFFAC92003F0DEFA002003F0B2
:102B8000C9FA002003F0C6FA002003F0C3FA0020BF
:102B900003F0C0FA002003F0BDFA002003F0BAFAF7
:102BA000002003F0B7FA002003F0B4FA002003F08D
:102BB000B1FA002003F0AEFA002003F0ABFA0020D7
:102BC00003F0A8FA002003F0A5FA002003F0A2FA0F
:102BD000002003F09FFA002003F09CFAE02003F0AD
:102BE000ABFA162003F096FA002003F093FA1C20AB
:102BF00003F090FA002003F08DFA212003F08AFA06
:102C0000002003F087FA362003F084FA002003F056
:102C100081FA462003F07EFA002003F07BFA52206E
:102C200003F078FA002003F075FA642003F072FADA
:102C3000002003F06FFA7A2003F06CFA002003F012
:102C400069FA8B2003F066FA002003F063FA9920FA
:102C500003F060FA002003F05DFAA82003F05AFAAE
:102C6000002003F057FAB92003F054FA002003F0D3
:102C700051FAC42003F04EFA002003F04BFACA20A8
:102C800003F048FA002003F045FAD22003F042FA9C
:102C9000002003F03FFAD92003F03CFA002003F0B3
:102CA00039FAE02003F036FA002003F033FAF3207B
:102CB00003F030FA002003F02DFAE12003F03CFA93
:102CC000162003F027FA002003F024FA1C2003F05A
:102CD00021FA002003F01EFA222003F01BFA002044
:102CE00003F018FA362003F015FA002003F012FA68
:102CF000452003F00FFA002003F00CFA522003F0F5
:102D000009FA002003F006FA642003F003FA002019
:102D100003F000FA7A2003F0FDF9002003F0FAF93D
:102D20008B2003F0F7F9002003F0F4F9992003F069
:102D3000F1F9002003F0EEF9A82003F0EBF90020F0
:102D400003F0E8F9B92003F0E5F9002003F0E2F917
:102D5000C42003F0DFF9002003F0DCF9CA2003F0FF
:102D6000D9F9002003F0D6F9D22003F0D3F90020DE
:102D700003F0D0F9D82003F0CDF9002003F0CAF910
:102D8000E02003F0C7F9002003F0C4F9F32003F0BA
:102D9000C1F9002003F0BEF9E22003F0CDF90520CF
:102DA00003F0B8F9002003F0B5F90B2003F0B2F9F5
:102DB000002003F0AFF91B2003F0ACF9002003F072
:102DC000A9F9342003F0A6F9002003F0A3F9442068
:102DD00003F0A0F9002003F09DF94F2003F09AF9C9
:102DE000002003F097F9612003F094F9002003F02C
:102DF00091F9792003F08EF9002003F08BF98820F7
:102E000003F088F9002003F085F9972003F082F998
:102E1000002003F07FF9A62003F07CF9002003F0E6
:102E200079F9B72003F076F9002003F073F9C22096
:102E300003F070F9002003F06DF9C72003F06AF980
:102E4000002003F067F9D12003F064F9002003F0BB
:102E500061F9D62003F05EF9002003F05BF9DD2074
:102E600003F058F9002003F055F9F32003F052F96C
:102E7000002003F04FF9E32003F05EF9052003F092
:102E800049F9002003F046F90A2003F043F9002035
:102E900003F040F91C2003F03DF9002000E0FDE2C2
:102EA00003F038F9332003F035F9002003F032F94C
:102EB000442003F02FF9002003F02CF9502003F0F8
:102EC00029F9002003F026F9622003F023F90020FD
:102ED00003F020F9782003F01DF9002003F01AF91F
:102EE000882003F017F9002003F014F9972003F06D
:102EF00011F9002003F00EF9A62003F00BF90020D1
:102F000003F008F9B72003F005F9002003F002F9F7
:102F1000C22003F0FFF8002003F0FCF8C72003F004
:102F2000F9F8002003F0F6F8D12003F0F3F80020C0
:102F300003F0F0F8D52003F0EDF8002003F0EAF8F4
:102F4000DD2003F0E7F8002003F0E4F8F32003F0BD
:102F5000E1F8002003F0DEF8E42003F0EDF80120B2
:102F600003F0D8F8002003F0D5F8012003F0D2F8E0
:102F7000002003F0CFF8022003F0CCF8002003F08B
:102F8000C9F82A2003F0C6F8002003F0C3F83C205B
:102F900003F0C0F8002003F0BDF84B2003F0BAF8AE
:102FA000002003F0B7F85D2003F0B4F8002003F030
:102FB000B1F8742003F0AEF8002003F0ABF88420E1
:102FC00003F0A8F8002003F0A5F8932003F0A2F87E
:102FD000002003F09FF8A22003F09CF8002003F0EB
:102FE00099F8B32003F096F8002003F093F8BE2080
:102FF00003F090F8002003F08DF8C42003F08AF865
:10300000002003F087F8CD2003F084F8002003F0BF
:1030100081F8D32003F07EF8002003F07BF8DD2058
:1030200003F078F8002003F075F8F32003F072F84D
:10303000002003F06FF8E52003F07EF8002003F095
:1030400069F8002003F066F8002003F063F8002020
:1030500003F060F8022003F05DF8002003F05AF856
:10306000292003F057F8002003F054F83C2003F027
:1030700051F8002003F04EF84B2003F04BF80020ED
:1030800003F048F85D2003F045F8002003F042F813
:10309000742003F03FF8002003F03CF8842003F094
:1030A00039F8002003F036F8932003F033F80020BD
:1030B00003F030F8A22003F02DF8002003F02AF8E6
:1030C000B32003F027F8002003F024F8BE2003F01B
:1030D00021F8002003F01EF8C42003F01BF80020A4
:1030E00003F018F8CD2003F015F8002003F012F8D3
:1030F000D32003F00FF8002003F00CF8DC2003F0DD
:1031000009F8002003F006F8F32003F003F800208C
:1031100003F000F8E62003F00FF8112002F0FAFFA8
:10312000002002F0F7FF342002F0F4FF002002F04C
:10313000F1FF562002F0EEFF002002F0EBFF7620B8
:1031400002F0E8FF002002F0E5FF772002F0E2FF46
:10315000002002F0DFFF662002F0DCFF002002F01A
:10316000D9FF882002F0D6FF002002F0D3FF99207B
:1031700002F0D0FF002002F0CDFFBB2002F0CAFF1A
:10318000002002F0C7FF992002F0C4FF002002F0E7
:10319000C1FF662002F0BEFF002002F0BBFF5520F9
:1031A00002F0B8FF002002F0B5FF552002F0B2FF98
:1031B000002002F0AFFF452002F0ACFF002002F03B
:1031C000A9FF432002F0A6FF002002F0A3FF442045
:1031D00002F0A0FF002002F09DFFE72002F0ACFF0C
:1031E000322002F097FF002002F094FF552002F0F9
:1031F00091FF002002F08EFF762002F08BFF00206E
:1032000002F088FF662002F085FF002002F082FFB6
:10321000672002F07FFF002002F07CFF672002F0B1
:1032200079FF002002F076FF872002F073FF002074
:1032300002F070FF992002F06DFF002002F06AFF9B
:10324000BB2002F067FF002002F064FF992002F02B
:1032500061FF002002F05EFF772002F05BFF00209C
:1032600002F058FF442002F055FF002002F052FF08
:10327000562002F04FFF002002F04CFF232002F006
:1032800049FF002002F046FF332002F043FF0020F8
:1032900002F040FF452002F03DFF002002F03AFF1F
:1032A000E82002F049FF002002F034FF002002F085
:1032B00031FF992002F02EFF002002F02BFF872023
:1032C00002F028FF002002F025FF882002F022FFF4
:1032D000002002F01FFF772002F01CFF002002F008
:1032E00019FF662002F016FF002002F013FF88206D
:1032F00002F010FF002002F00DFFAA2002F00AFFEA
:10330000002002F007FFBB2002F004FF002002F0C3
:1033100001FF992002F0FEFE002002F0FBFE662075
:1033200002F0F8FE002002F0F5FE552002F0F2FE59
:10333000002002F0EFFE552002F0ECFE002002F02B
:10334000E9FE442002F0E6FE002002F0E3FE442005
:1033500002F0E0FE002002F0DDFE552002F0DAFE71
:10336000002002F0D7FEE92002F0E6FEAA2002F0DB
:10337000D1FE002002F0CEFE002002F0CBFE0020A5
:1033800002F0C8FE002002F0D7FEAA2002F0C2FE22
:10339000CF2002F0D1FE002002F0BCFE002002F09F
:1033A000B9FE002002F0B6FE002002F0B3FE0020BD
:1033B00002F0B0FE002002F0ADFE002002F0AAFEF6
:1033C000002002F0A7FE002002F0A4FE002002F080
:1033D000A1FE002002F09EFE002002F09BFE0020D5
:1033E00002F098FE002002F095FE002002F092FE0E
:1033F000002002F08FFE002002F08CFEF02002F090
:103400009BFE002002F086FE502002F083FE00208A
:1034100002F080FE002002F07DFE002002F07AFE25
:10342000F32002F089FE002002F074FEF92002F081
:1034300083FE062002F06EFE102002F06BFE2920B3
:1034400002F068FE002002F065FE3A2002F074FEF1
:10345000552002F05FFE112002F06EFE642003F0A2
:1034600013FF292002F068FE352002F065FE0020DF
:1034700002F050FE512002F05FFEFF2002F04AFEF3
:10348000532002F059FE2C2002F044FE552002F099
:1034900053FE822002F03EFE2C20FCE3B8427DD198
:1034A0004FF470445521204602F05EFE651CAA21AF
:1034B000284602F059FEA61C5221304602F054FE66
:1034C000E71C0821384602F04FFE4FF204080121A4
:1034D000404602F049FE0D214FF4304002F044FE18
:1034E0000D214BF2010002F03FFE0D214BF20200D4
:1034F00002F03AFE4FF436493421484602F034FED9
:1035000034214BF2016002F02FFE34214BF20260B5
:1035100002F02AFE4FF4314A0D21504602F024FEFB
:103520004BF2011B0D21584602F01EFE0D214BF2FD
:10353000021002F019FE34214FF4374002F014FE5D
:1035400034214BF2017002F00FFE34214BF2027075
:1035500002F00AFE00214FF4324002F005FE002185
:103560004BF2012002F000FE00214BF2022002F09B
:10357000FBFD24214FF4384002F0F6FD24214BF6E8
:10358000010002F0F1FD24214BF6020002F0ECFDF7
:1035900001214FF43F4002F0E7FD00E0FEE30F2180
:1035A0004FF4334002F0E0FD0F214BF2013002F006
:1035B000DBFD0F214BF2023002F0D6FD34214FF437
:1035C000394002F0D1FD34214BF6011002F0CCFD60
:1035D00034214BF6021002F0C7FD08214FF43540AC
:1035E00002F0C2FD08214BF2015002F0BDFD08219E
:1035F0004BF2025002F0B8FD03214FF4424002F0BA
:10360000B3FD24214FF43A4002F0AEFD24214BF6E5
:10361000012002F0A9FD24214BF6022002F0A4FDB6
:1036200000214FF43C4002F09FFD78214BF6014011
:1036300002F09AFD00214BF6024002F095FD0021B8
:103640004FF43D4002F090FD78214BF6015002F01E
:103650008BFD00214BF6025002F086FD00214FF455
:103660003E4002F081FD64214BF6016002F07CFDDA
:1036700000214FF4514002F077FD33214DF201104B
:1036800002F072FD00214DF2021002F06DFD3421B6
:103690004DF2031002F068FD00214DF2041002F01B
:1036A00063FD3A214DF2051002F05EFD00214DF25E
:1036B000061002F059FD4A214DF2071002F054FDA8
:1036C00000214DF2081002F04FFD5C214DF209106F
:1036D00002F04AFD00214DF20A1002F045FD812161
:1036E0004DF20B1002F040FD00214DF20C1002F0E3
:1036F0003BFDA6214DF20D1002F036FD00214DF2EA
:103700000E1002F031FDE5214DF20F1002F02CFDFC
:1037100001214DF2101002F027FD13214DF211107E
:1037200002F022FD01214DF2121002F01DFD542184
:103730004DF2131002F018FD01214DF2141002F0A9
:1037400013FD82214DF2151002F00EFD01214DF204
:10375000161002F009FDCA214DF2171002F004FD07
:1037600002214DF2181002F0FFFC00214DF2191059
:1037700002F0FAFC02214DF21A1002F0F5FC0121D0
:103780004DF21B1002F0F0FC02214DF21C1002F071
:10379000EBFC34214DF21D1002F0E6FC02214DF24B
:1037A0001E1002F0E1FC67214DF21F1002F0DCFC5C
:1037B00002214DF2201002F0D7FC84214DF221109D
:1037C00002F0D2FC02214DF2221002F0CDFCA42125
:1037D0004DF2231002F0C8FC02214DF2241002F039
:1037E000C3FCB7214DF2251002F0BEFC02214DF2C0
:1037F000261002F0B9FCCF214DF2271002F0B4FCE4
:1038000002214DF2281002F0AFFCDE214DF229100A
:1038100002F0AAFC02214DF22A1002F0A5FCF221CE
:103820004DF22B1002F0A0FC02214DF22C1002F000
:103830009BFCFE214DF22D1002F096FC03214DF26F
:103840002E1002F091FC10214DF22F1002F08CFC92
:1038500003214DF2301002F087FC33214DF231107C
:1038600002F082FC03214DF2321002F07DFC6D214A
:103870004DF2331002F078FC00214FF4524002F078
:1038800073FC33214DF2012002F06EFC00214DF259
:10389000022002F069FC34214DF2032002F064FCA6
:1038A00000214DF2042002F05FFC3A214DF2052088
:1038B00002F05AFC00214DF2062002F055FC4A218C
:1038C0004DF2072002F050FC00214DF2082002F0DA
:1038D0004BFC5C214DF2092002F046FC00214DF228
:1038E0000A2002F041FC81214DF20B2002F03CFC49
:1038F00000214DF20C2002F037FCA6214DF20D20E4
:1039000002F032FC00214DF20E2002F02DFCE521E8
:103910004DF20F2002F028FC01214DF2102002F0A0
:1039200023FC13214DF2112002F01EFC01214DF267
:10393000122002F019FC54214DF2132002F014FC65
:1039400001214DF2142002F00FFC82214DF21520CE
:1039500002F00AFC01214DF2162002F005FCCA21FA
:103960004DF2172002F000FC02214DF2182002F067
:10397000FBFB00214DF2192002F0F6FB02214DF273
:103980001A2002F0F1FB01214DF21B2002F0ECFBAA
:1039900002214DF21C2002F0E7FB34214DF21D20E4
:1039A00002F0E2FB02214DF21E2002F0DDFB672156
:1039B0004DF21F2002F0D8FB02214DF2202002F030
:1039C000D3FB84214DF2212002F0CEFB02214DF2E7
:1039D000222002F0C9FBA4214DF2232002F0C4FBF7
:1039E00002214DF2242002F0BFFBB7214DF2252029
:1039F00002F0BAFB02214DF2262002F0B5FBCF21E6
:103A00004DF2272002F0B0FB02214DF2282002F0F7
:103A1000ABFBDE214DF2292002F0A6FB02214DF284
:103A20002A2002F0A1FBF2214DF22B2002F09CFB98
:103A300002214DF22C2002F097FBFE214DF22D20A9
:103A400002F092FB03214DF22E2002F08DFB10219B
:103A50004DF22F2002F088FB03214DF2302002F0BE
:103A600083FB33214DF2312002F07EFB03214DF226
:103A7000322002F079FB6D214DF2332002F074FB0D
:103A800000214FF4534002F06FFB33214DF201301F
:103A900002F06AFB00214DF2023002F065FB342196
:103AA0004DF2033002F060FB00214DF2043002F0D1
:103AB0005BFB3A214DF2053002F056FB00214DF23E
:103AC000063002F051FB4A214DF2073002F04CFB68
:103AD00000214DF2083002F047FB5C214DF2093025
:103AE00002F042FB00214DF20A3002F03DFB812141
:103AF0004DF20B3002F038FB00214DF20C3002F099
:103B000033FBA6214DF20D3002F02EFB00214DF2C9
:103B10000E3002F029FBE5214DF20F3002F024FBBC
:103B200001214DF2103002F01FFB13214DF2113034
:103B300002F01AFB01214DF2123002F015FB542164
:103B40004DF2133002F010FB01214DF2143002F05F
:103B50000BFB82214DF2153002F006FB01214DF2E4
:103B6000163002F001FBCA214DF2173002F0FCFAC8
:103B700002214DF2183002F0F7FA00214DF219300F
:103B800002F0F2FA02214DF21A3002F0EDFA0121B0
:103B90004DF21B3002F0E8FA02214DF21C3002F027
:103BA000E3FA34214DF21D3002F0DEFA02214DF22B
:103BB0001E3002F0D9FA67214DF21F3002F0D4FA1C
:103BC00002214DF2203002F0CFFA84214DF2213053
:103BD00002F0CAFA02214DF2223002F0C5FAA42105
:103BE0004DF2233002F0C0FA02214DF2243002F0EF
:103BF000BBFAB7214DF2253002F0B6FA02214DF2A0
:103C0000263002F0B1FACF214DF2273002F0ACFAA3
:103C100002214DF2283002F0A7FADE214DF22930C0
:103C200002F0A2FA02214DF22A3002F09DFAF221AE
:103C30004DF22B3002F098FA02214DF22C3002F0B6
:103C400093FAFE214DF22D3002F08EFA03214DF24F
:103C50002E3002F089FA10214DF22F3002F084FA52
:103C600003214DF2303002F07FFA33214DF2313032
:103C700002F07AFA03214DF2323002F075FA6D212A
:103C80004DF2333002F070FA00214FF4544002F04C
:103C90006BFA332100E080E34DF2014002F064FA58
:103CA00000214DF2024002F05FFA34214DF2034050
:103CB00002F05AFA00214DF2044002F055FA3A217E
:103CC0004DF2054002F050FA00214DF2064002F09C
:103CD0004BFA4A214DF2074002F046FA00214DF21C
:103CE000084002F041FA5C214DF2094002F03CFA32
:103CF00000214DF20A4002F037FA81214DF20B40CB
:103D000002F032FA00214DF20C4002F02DFAA62109
:103D10004DF20D4002F028FA00214DF20E4002F063
:103D200023FAE5214DF20F4002F01EFA01214DF277
:103D3000104002F019FA13214DF2114002F014FA6A
:103D400001214DF2124002F00FFA54214DF21340BE
:103D500002F00AFA01214DF2144002F005FA822124
:103D60004DF2154002F000FA01214DF2164002F02A
:103D7000FBF9CA214DF2174002F0F6F902214DF28B
:103D8000184002F0F1F900214DF2194002F0ECF96F
:103D900002214DF21A4002F0E7F900E001E30121AF
:103DA0004DF21B4002F0E0F902214DF21C4002F0FE
:103DB000DBF934214DF21D4002F0D6F902214DF21B
:103DC0001E4002F0D1F967214DF21F4002F0CCF9FC
:103DD00002214DF2204002F0C7F984214DF221402A
:103DE00002F0C2F902214DF2224002F0BDF9A421F5
:103DF0004DF2234002F0B8F902214DF2244002F0C6
:103E0000B3F9B7214DF2254002F0AEF902214DF28F
:103E1000264002F0A9F9CF214DF2274002F0A4F983
:103E200002214DF2284002F09FF9DE214DF2294097
:103E300002F09AF902214DF22A4002F095F9F2219E
:103E40004DF22B4002F090F902214DF22C4002F08D
:103E50008BF9FE214DF22D4002F086F903214DF23F
:103E60002E4002F081F910214DF22F4002F07CF932
:103E700003214DF2304002F077F933214DF2314009
:103E800002F072F903214DF2324002F06DF96D211A
:103E90004DF2334002F068F900214FF4554002F032
:103EA00063F933214DF2015002F05EF900214DF229
:103EB000025002F059F934214DF2035002F054F946
:103EC00000214DF2045002F04FF93A214DF2055015
:103ED00002F04AF900214DF2065002F045F94A215C
:103EE0004DF2075002F040F900214DF2085002F067
:103EF0003BF95C214DF2095002F036F900214DF2F8
:103F00000A5002F031F981214DF20B5002F02CF9E8
:103F100000214DF20C5002F027F9A6214DF20D5070
:103F200002F022F900214DF20E5002F01DF9E521B8
:103F30004DF20F5002F018F901214DF2105002F02D
:103F400013F913214DF2115002F00EF901214DF237
:103F5000125002F009F954214DF2135002F004F905
:103F600001214DF2145002F0FFF882214DF215505C
:103F700002F0FAF801214DF2165002F0F5F8CA21CC
:103F80004DF2175002F0F0F802214DF2185002F0F5
:103F9000EBF800214DF2195002F0E6F802214DF243
:103FA0001A5002F0E1F801214DF21B5002F0DCF84A
:103FB00002214DF21C5002F0D7F834214DF21D5071
:103FC00002F0D2F802214DF21E5002F0CDF8672126
:103FD0004DF21F5002F0C8F802214DF2205002F0BD
:103FE000C3F884214DF2215002F0BEF802214DF2B7
:103FF000225002F0B9F8A4214DF2235002F0B4F897
:1040000002214DF2245002F0AFF8B7214DF22550B5
:1040100002F0AAF802214DF2265002F0A5F8CF21B5
:104020004DF2275002F0A0F802214DF2285002F084
:104030009BF8DE214DF2295002F096F802214DF254
:104040002A5002F091F8F2214DF22B5002F08CF838
:1040500002214DF22C5002F087F8FE214DF22D5036
:1040600002F082F803214DF22E5002F07DF810216B
:104070004DF22F5002F078F803214DF2305002F04B
:1040800073F833214DF2315002F06EF803214DF2F6
:10409000325002F069F86D214DF2335002F064F8AD
:1040A00000214FF4564002F05FF833214DF20160D9
:1040B00002F05AF800214DF2026002F055F8342166
:1040C0004DF2036002F050F800214DF2046002F05E
:1040D0004BF83A214DF2056002F046F800214DF20E
:1040E000066002F041F84A214DF2076002F03CF808
:1040F00000214DF2086002F037F85C214DF20960B2
:1041000002F032F800214DF20A6002F02DF8812110
:104110004DF20B6002F028F800214DF20C6002F025
:1041200023F8A6214DF20D6002F01EF800214DF299
:104130000E6002F019F8E5214DF20F6002F014F85C
:1041400001214DF2106002F00FF813214DF21160C1
:1041500002F00AF801214DF2126002F005F8542134
:104160004DF2136002F000F801214DF2146001F0ED
:10417000FBFF82214DF2156001F0F6FF01214DF2A7
:10418000166001F0F1FFCA214DF2176001F0ECFF5B
:1041900002214DF2186001F0E7FF00214DF2196095
:1041A00001F0E2FF02214DF21A6001F0DDFF012172
:1041B0004DF21B6001F0D8FF02214DF21C6001F0AE
:1041C000D3FF34214DF21D6001F0CEFF02214DF2EC
:1041D0001E6001F0C9FF67214DF21F6001F0C4FFAE
:1041E00002214DF2206001F0BFFF84214DF22160D9
:1041F00001F0BAFF02214DF2226001F0B5FFA421C7
:104200004DF2236001F0B0FF02214DF2246001F075
:10421000ABFFB7214DF2256001F0A6FF02214DF260
:10422000266001F0A1FFCF214DF2276001F09CFF35
:1042300002214DF2286001F097FFDE214DF2296046
:1042400001F092FF02214DF22A6001F08DFFF22170
:104250004DF22B6001F088FF02214DF22C6001F03D
:1042600083FFFE214DF22D6001F07EFF03214DF210
:104270002E6001F079FF10214DF22F6001F074FFE4
:1042800003214DF2306001F06FFF33214DF23160B8
:1042900001F06AFF03214DF2326001F065FF6D21EC
:1042A0004DF2336001F060FF5521204601F05CFFC4
:1042B000AA21284601F058FF5221304601F054FF50
:1042C0000821384601F050FF0021404601F04CFF24
:1042D000CC21504601F048FF0021584601F044FF30
:1042E0000521484601F040FF70214FF4374001F0AE
:1042F0003BFF70214BF2017001F036FF01214FF4BA
:10430000384001F031FF03214BF6010001F02CFF92
:1043100003214BF6020001F027FF03214BF60300B7
:1043200001F022FF02214FF43C4001F01DFF00216B
:104330004BF6014001F018FF00214BF6024001F05E
:1043400013FFD0214FF4494001F00EFF02214CF63B
:10435000011001F009FF50214CF6021001F004FF9A
:1043600050214CF6031001F0FFFE50214CF60410D2
:1043700001F0FAFE00214FF4545001F0F5FE5521F2
:104380004FF4685001F0F0FE4FF4885001F0D4FE75
:10439000782002F07FFF4FF4245001F0CDFE01F0B1
:1043A00037BAA0F513414FF4E06740F2022840F21B
:1043B0003F154FF4274A253935D0FE1DA0F513418E
:1043C0004FF4017928397DD0A0F513414FF4887B53
:1043D0004FF41C5A203976D0A0F51341313973D0EF
:1043E000A0F5A841083970D0A0F5A8514FF4407B42
:1043F00005396BD0A0F53541053968D0A0F54541A8
:10440000053965D0A0F5094189397DD0A0F58A41EB
:1044100031397AD0A0F58A41353977D0A0F5C85125
:10442000633974D0BBE747F6F001E52001F09CFE4C
:104430002146012001F098FE3946022001F094FE49
:1044400041F23001032001F08FFE0021042001F031
:104450008BFE4146082001F087FE0021092001F073
:1044600083FE00210A2001F07FFE00210C2001F0D4
:104470007BFE00210D2001F077FE00210F2001F0CE
:1044800073FE0021102001F06FFE0721112001F0C2
:104490006BFE0021122001F067FE0021132001F0C5
:1044A00063FE0021072001F05FFE41F290611020C1
:1044B00001F05AFE40F22721112001F055FE9D2106
:1044C000122006E087E030E1D3E1A5E23FE3FDE31F
:1044D000FDE301F049FE4FF4C851132001F044FE02
:1044E0002521292001F040FE0D212B2001F03CFE6A
:1044F0000721302001F038FE40F20331312001F075
:1045000033FE0321322003E0FEE3FEE3FEE3FEE39D
:1045100001F02AFE40F20621352001F025FE082197
:10452000362001F021FE40F20641372001F01CFE4A
:104530004FF44171382001F017FE0721392001F0B6
:1045400013FE40F202613C2001F00EFE08213D20E6
:1045500001F00AFE0021502001F006FEEF2151205B
:1045600001F002FE0021522001F0FEFD29465320F9
:1045700001F0FAFD5146602001F0F6FD01216120B5
:1045800001F0F2FD00216A2001F0EEFD0021802003
:1045900001F0EAFD0021812001F0E6FD00218220EA
:1045A00001F0E2FD0021832001F0DEFD00218420E6
:1045B00001F0DAFD0021852001F0D6FD10219020C8
:1045C00001F0D2FD4FF4C061922001F0CDFD40F228
:1045D00033110720FEE341F28F01EC2001F0C4FD0E
:1045E00041F23421EF2001F0BFFD2146012001F00E
:1045F000BBFD3946022001F0B7FD41F23001032036
:1046000001F0B2FD0021042001F0AEFD414608207A
:1046100001F0AAFD0021092001F0A6FD00210A20D9
:1046200001F0A2FD01210C2001F09EFD00210D20D2
:1046300001F09AFD00210F2001F096FD00211020CD
:1046400001F092FD0721112001F08EFD00211220C2
:1046500001F08AFD0021132001F086FD01210720D1
:1046600001F082FD322002F00FFE41F29041102055
:1046700001F07AFD40F22721112001F075FD322072
:1046800002F002FE8A21122001F06EFD322002F0BB
:10469000FBFD4FF4D051132001F066FD06212920C7
:1046A00001F062FD0D212B2001F05EFD322002F0B1
:1046B000EBFD0021202001F057FD0021212001F019
:1046C00053FD322002F0E0FD0021302001F04CFDCE
:1046D00040F20461312001F047FD40F20531322003
:1046E00001F042FD0021352001F03EFD40F6094178
:1046F000362001F039FD4946372001F035FD40F202
:104700000131382001F030FD3146392001F02CFD17
:1047100000213C2001F028FD40F60A213D2001F057
:1047200023FD322002F0B0FD3AE10021084601F0FD
:104730001BFD2146012001F017FD3946022001F042
:1047400013FD41F23001032001F00EFD0021042091
:1047500001F00AFD4146082001F006FD0021092074
:1047600001F002FD00210A2001F0FEFC01210C20D5
:1047700001F0FAFC00210D2001F0F6FC00210F20D1
:1047800001F0F2FC322002F07FFD40F2011107201F
:1047900001F0EAFC322002F077FD4FF48651102040
:1047A00001F0E2FC0721112001F0DEFC5C465946D5
:1047B000122001F0D9FC4FF43061132001F0D4FC39
:1047C0000021292001F0D0FC44F210012B2001F03F
:1047D000CBFC0021502001F0C7FCEF21512001F05B
:1047E000C3FC0021522001F0BFFC2946532001F0F8
:1047F000BBFC5146602001F0B7FC0121612001F0B3
:10480000B3FC00216A2001F0AFFC0021802001F000
:10481000ABFC0021812001F0A7FC0021822001F0E7
:10482000A3FC0021832001F09FFC0021842001F0E3
:104830009BFC0021852001F097FC1021902001F0C5
:1048400093FC0021922001F08FFC0121932001F0C4
:104850008BFC2146952001F087FC0021972001F078
:1048600083FC0021982001F07FFC40F273110720A7
:1048700079E341F21401E72001F076FC21460120A2
:1048800001F072FC4FF40071022001F06DFC41F266
:104890003801032001F068FC4146082001F064FC67
:1048A0000021092001F060FC00210A2001F05CFCDD
:1048B00000210C2001F058FC00210D2001F054FCD7
:1048C00000210F2001F050FC0021102001F04CFCD1
:1048D0000721112001F048FC0021122001F044FCC6
:1048E0000021132001F040FCC82002F0CDFC41F271
:1048F0009061102001F038FC40F22721112001F0D6
:1049000033FC322002F0C0FC0C21122001F02CFC00
:10491000322002F0B9FC4FF40061132001F024FCB6
:104920001121292001F020FC0B212B2001F01CFC7F
:10493000322002F0A9FC0021202001F015FC2946BC
:10494000212001F011FC0021302001F00DFC4FF47A
:1049500083742146312001F007FC0021322001F050
:1049600003FC4946352001F0FFFB41F20A61362085
:1049700001F0FAFB3146372001F0F6FB21463820E2
:1049800001F0F2FB3146392001F0EEFB40F202412A
:104990003C2001F0E9FB40F60F413D2001F0E4FB33
:1049A0000021502001F0E0FBEF21512001F0DCFB61
:1049B0000021522001F0D8FB2946532001F0D4FBFE
:1049C0005146602001F0D0FB0121612001F0CCFBB9
:1049D00000216A2001F0C8FB0021802001F0C4FB07
:1049E0000021812001F0C0FB0021822001F0BCFBEE
:1049F0000021832001F0B8FB0021842001F0B4FBEA
:104A00000021852001F0B0FB1021902001F0ACFBCB
:104A10004FF4C0619220FDE32146012001F0A4FB88
:104A20003946022001F0A0FB41F23001032001F0E1
:104A30009BFB0021042001F097FB40F20721082096
:104A400001F092FB0021092001F08EFB00210A20D9
:104A500001F08AFB00210C2001F086FB00210D20D3
:104A600001F082FB00210F2001F07EFB142002F0F8
:104A70000BFC41F2B061102001F076FB0121112006
:104A800001F072FB0121172001F06EFB4FF49C71C5
:104A9000122001F069FB4FF40061132001F064FB68
:104AA0000921292001F060FB09212A2001F05CFB8B
:104AB0000021A42001F058FB0021502001F054FBFC
:104AC000EF21512001F050FB0021522001F04CFB5E
:104AD0002946532001F048FB5146602001F044FB79
:104AE0000121612001F040FB00216A2001F03CFB24
:104AF0000021802001F038FB0021812001F034FBEF
:104B00000021822001F030FB0021832001F02CFBEA
:104B10000021842001F028FB0021852001F024FBE6
:104B20001321902001F020FB0021922001F01CFBBA
:104B30000321932001F018FB5946952001F014FB46
:104B400040F27311072001F00FFB32200DE100212C
:104B5000072001F009FB322002F096FB4FF48E7122
:104B6000122001F001FB0121A42001F0FDFA0F2128
:104B7000082001F0F9FA08210A2001F0F5FA0821CD
:104B80000D2001F0F1FA3146302001F0EDFA072155
:104B9000312001F0E9FA40F20361322001F0E4FA39
:104BA0003946332001F0E0FA4146342001F0DCFAC6
:104BB0000221352001F0D8FA41F60F71362001F0BC
:104BC000D3FA3146372001F0CFFA0021382001F026
:104BD000CBFA0021392001F0C7FA31463A2001F022
:104BE000C3FA00213B2001F0BFFA07213C2001F06D
:104BF000BBFA00213D2001F0B7FA322002F044FB5D
:104C00000121072001F0B0FA0121172001F0ACFAD0
:104C1000322002F039FB4FF4BD51102001F0A4FA0C
:104C200040F21721112001F09FFA4FF48F711220EA
:104C300001F09AFA4FF47061132001F095FA002107
:104C40002A2001F091FA0A21292001F08DFA4FF46F
:104C50009F71122001F088FA0021502001F084FA9F
:104C6000EF21512001F080FA0021522001F07CFA5E
:104C70002946532001F078FA5146602001F074FA79
:104C80000121612001F070FA00216A2001F06CFA24
:104C90000021802001F068FA0021812001F064FAEF
:104CA0000021822001F060FA0021832001F05CFAEB
:104CB0000021842001F058FA0021852001F054FAE7
:104CC0001321902001F050FA594601E050E04BE1E9
:104CD000922001F049FA0521932001F045FA0021C4
:104CE000952001F041FA0021972001F03DFA0021C2
:104CF000982001F039FA2146012001F035FA3946B1
:104D0000022001F031FA03E0F6E1A9E25CE3FDE301
:104D100041F23801032001F027FA0021042001F0BC
:104D200023FA00210C2001F01FFA00210F2001F0CE
:104D30001BFA0021202001F017FA0021212001F0A8
:104D400013FA2121072001F00FFA142002F09CFA37
:104D50006121072001F008FA142002F095FA40F2D0
:104D60007311072001F000FA142002F08DFA2AE3F3
:104D70000021084601F0F8F90021084601F0F4F995
:104D80000021084601F0F0F90021084601F0ECF995
:104D90000121A42001F0E8F9142002F075FA51462F
:104DA000602001F0E1F946464146082001F0DCF9B7
:104DB0004FF40571302001F0D7F943F2157131201D
:104DC00001F0D2F940F20461322001F0CDF940F651
:104DD000166100E0C3E0332001F0C6F942F2112170
:104DE000342001F0C1F94FF4A851352001F0BCF98D
:104DF00048F20751362001F0B7F941F20741372058
:104E000001F0B2F941F20341382001F0ADF920215F
:104E1000392001F0A9F91A21902001F0A5F900210B
:104E2000102001F0A1F90721112001F09DF90021C6
:104E3000122001F099F90021132001F095F91420B6
:104E400002F022FA4FF4E661102001F08DF940F2F1
:104E50003711112001F088F9142002F015FA4FF4EF
:104E6000DC71122001F080F9142002F00DFA4FF4E9
:104E70007061132001F078F980212A2001F074F983
:104E80004821292001F070F9142002F0FDF9214693
:104E9000012001F069F93946022001F065F941F27B
:104EA0003801032001F060F93146082001F05CF977
:104EB00000210A2001F058F900210C2001F054F9DA
:104EC00000210D2001F050F930210E2001F04CF9A5
:104ED0000021502001F048F9EF21512001F044F960
:104EE0000021522001F040F92946532001F03CF9FD
:104EF0005146602001F038F90121612001F034F9B8
:104F000000216A2001F030F91121902001F02CF9E4
:104F10004FF4C061922001F027F940F20241932042
:104F200001F022F90221942001F01EF9142002F070
:104F3000ABF90121072001F017F9142002F0A4F9C0
:104F40006121072001F010F940F27311072001F0F0
:104F50000BF90021202001F007F90021212001F0A8
:104F600003F9222100202CE20021084601F0FCF880
:104F70000021084601F0F8F8142002F085F900211C
:104F8000084601F0F1F80021084601F0EDF8002193
:104F9000084601F0E9F80021084601F0E5F8012192
:104FA000A42001F0E1F8142002F06EF951466020CF
:104FB00001F0DAF840F60601082001F0D5F840F2D9
:104FC00003773946302001F0CFF80121312001F07C
:104FD000CBF80421322001F0C7F84FF4817133205F
:104FE00001F0C2F85E465946342001F0BDF840F2A7
:104FF0000311352001F0B8F81F21362001F0B4F874
:105000003946372001F0B0F80121382001F0ACF822
:105010000421392001F0A8F81521902001F0A4F80E
:105020004FF48261102001F09FF840F247211120D7
:1050300001F09AF84FF4DE71122001F095F84FF468
:105040006061132001F090F8782002F01DF92146EC
:10505000012001F089F84FF40071022001F084F87A
:1050600041F23001032001F07FF808210A2001F00D
:105070007BF800210C2001F077F820210E2001F0B0
:1050800073F800210F2001F06FF80021202001F0BB
:105090006BF80021212001F067F83D212A2001F062
:1050A00063F8142002F0F0F82D21292001F05CF8BB
:1050B0000021502001F058F84DF2EF01512001F08D
:1050C00053F80021522001F04FF82946532001F0F7
:1050D0004BF80021612001F047F800216A2001F01F
:1050E00043F83146922001F03FF80521932001F06A
:1050F0003BF82146FFF7BBBB0121002001F034F84B
:105100004AF6A401032001F02FF800210C2001F041
:105110002BF840F60C010D2001F026F84FF42C512D
:105120000E2001F021F8B0211E2001F01DF842F6FA
:105130003F31012001F018F84FF4C061022001F066
:1051400013F80021102001F00FF846F27801112029
:1051500001F00AF80021052001F006F800210620E0
:1051600001F002F84EF61C71162000F0FDFF03213D
:10517000172000F0F9FF40F23321072000F0F4FF80
:1051800000210B2000F0F0FF00210F2000F0ECFFC9
:105190000021412000F0E8FF0021422000F0E4FF60
:1051A0000021482000F0E0FF2946492000F0DCFF04
:1051B00000214A2000F0D8FF00214B2000F0D4FF4E
:1051C0004FF46F41442000F0CFFF0021452000F054
:1051D000CBFF2946462000F0C7FF3146302000F0C3
:1051E000C3FF4C464946312000F0BEFF2146322025
:1051F00000F0BAFF40F202552946332000F0B4FF18
:10520000691D342000F0B0FF2146352000F0ACFFCE
:10521000214600E07CE1362000F0A6FF2946372039
:1052200000F0A2FF40F2023421463A2000F09CFF39
:1052300021463B2000F098FF0021232000F094FF3E
:105240000021242000F090FF4FF40041252000F0C1
:105250008BFF00214F2000F087FF00214E20B0E09F
:105260000121002000F080FF0A2002F00DF841F239
:105270002861102000F078FF0E21122000F074FF4A
:1052800040F63921132000F06FFF0A2001F0FCFFE7
:105290004021112000F068FF5021152000F064FF2C
:1052A0000A2001F0F1FF1E21122000F05DFF0A200C
:1052B00001F0EAFF4FF4B151102000F055FF42F623
:1052C0003921132000F050FF0A2001F0DDFF2146B4
:1052D000012000F049FF5946022000F045FF41F24D
:1052E0003801032000F040FF4146082000F03CFF59
:1052F00008210A2000F038FF0021302000F034FFA0
:1053000040F20241312000F02FFF4FF48371322030
:1053100000F02AFF40F20351332000F025FF4FF444
:105320008271342000F020FF40F20131352000F07E
:105330001BFF3146362000F017FF40F205313720C1
:1053400000F012FF4FF40271382000F00DFF40F61C
:105350000B71392000F008FF0221412000F004FF0A
:105360005146602000F000FF0121612000F0FCFEAA
:105370004FF40471902000F0F7FE4FF485719220F5
:1053800000F0F2FE0421932000F0EEFE2146A02062
:1053900000F0EAFE0121072000F0E6FE21210720AF
:1053A00000F0E2FE2321072000F0DEFE332107207B
:1053B00000F0DAFE40F23311072000F0D5FE0021A4
:1053C000A02000F0D1FE23E23021152000F0CCFE19
:1053D00010219A2000F0C8FE2021112000F0C4FE08
:1053E00043F22841102000F0BFFE0221122000F0FD
:1053F000BBFE41F23801132000F0B6FE282001F078
:1054000043FF1221084600F0AFFE282001F03CFFC8
:1054100043F22041102000F0A7FE43F23801132090
:1054200000F0A2FE462001F02FFF0021302000F006
:105430009BFE40F20241312000F096FE40F207311F
:10544000322000F091FE4FF44171332000F08CFEC9
:105450000421342000F088FE40F20141352000F0A4
:1054600083FE3146362000F07FFE40F205313720C2
:1054700000F07AFE4FF4C2652946382000F074FE31
:105480002946392000F070FE2146012000F06CFE14
:105490005946022000F068FE41F23001032000F07E
:1054A00063FE40F60801082000F05EFE08210A2095
:1054B00000F05AFE5146602000F056FE01216120A6
:1054C00000F052FE4FF49F71902000F04DFE2146F7
:1054D000922000F049FE2146932000F045FE4FF453
:1054E0004051A02000F040FE1021A32000F03CFE1F
:1054F0000121072000F038FE2121072000F034FEB2
:105500002321072000F030FE332100E005E00720D2
:1055100000F02AFE40F23311ECE5E22000F00CFE30
:105520002746C24C276165156561DFF804831D219C
:10553000C8F80010802666612661256127616561D3
:105540000220C8F800006661266125612761656157
:105550000420C8F80000666126612561642001F01E
:1055600099FEE02000F0E8FD276165614FF0010A37
:10557000C8F800A06661266125610A2001F084FE5A
:10558000E02000F0D9FD276165614FF0030BC8F8FA
:1055900000B06661266125610C2001F075FE0120D6
:1055A00000F0CAFD0A2001F06FFEE62000F0C4FD05
:1055B000276165612F21C8F80010666126612561A9
:1055C00027616561FF20C8F80000666126612561DA
:1055D00027616561C8F80000666126612561B02019
:1055E00000F0AAFD276165612021C8F800106661FE
:1055F00026612561276165614FF00009C8F80090B8
:1056000066612661256127616561C8F800B0666141
:10561000266125612761656140F21F31C8F80010DD
:1056200066612661256127616561C8F800A0666131
:10563000266125612761656140F2DF11C8F800101D
:1056400066612661256127616561C8F80090666121
:1056500026612561B42000F06FFD2761656104209B
:10566000C8F800006661266125612761656140F226
:105670001F41C8F8001066612661256127616561D8
:10568000C8F80090666126612561276165612E2159
:10569000C8F8001066612661256127616561414691
:1056A000C8F8009066612661256127616561C8F8C8
:1056B000009066612661256127616561C8F80090E8
:1056C00066612661256127616561C1F800906661A8
:1056D00026612561B62000F02FFD2761656102205B
:1056E000C8F80000666126612561276165614FF495
:1056F0000371C8F800106661266125612761656144
:10570000C8F80090666126612561276165611721EF
:10571000C8F8001066612661256127616561152161
:10572000C8F8001066612661256127616561C8F8C7
:10573000009066612661256127616561C8F8009067
:10574000666126612561F02000F0F6FC2761656145
:10575000C8F800B0666126612561292000F0ECFCE4
:10576000D02000F0E9FC27616561C8F8009066610F
:1057700026612561BE2000F0DFFC276165610521FF
:10578000C8F8001066612661256127616561FE2108
:10579000C8F8001066612661256127616561414690
:1057A000C8F800A066612661256127616561C8F8B7
:1057B000009066612661256127616561C8F80090E7
:1057C00066612661256127616561C1F800906661A7
:1057D00026612561B82000F0AFFC27616561C8F83B
:1057E00000B066612661256127616561C8F800A087
:1057F000666126612561BA2000F09EFC2761656123
:10580000C8F800A0666126612561642000F052F8A6
:105810000020FCF7C9F9012291020448FBF77AFA4B
:10582000BDE8F05F4FF6FF70FCF77EB90010014055
:105830000C0C01402DE9F047DFF85C904FF0883008
:10584000C9F8000009F104052860134E00200C3649
:105850003060124CA8152061470067614FF0400886
:10586000C4F814800E488088A0F50941893902D116
:10587000022001F00FFD084808300068C4F81080CD
:1058800080B227614FF03331C9F8001029604FF61C
:10589000FF713160BDE8F087000C0140001001404D
:1058A0005401002010B500F047FCBDE81040FFF7A0
:1058B000C1BF00002DE9F0478146BE2000F03CFC4E
:1058C000204C4FF48077276165156561DFF878809B
:1058D0000521C8F8001080266661266125612761D0
:1058E00065614846FAF721FE4FF06632174BFAF72A
:1058F00090FDFAF740FEC8F8000066612661256158
:10590000276165610121C8F8001066612661256183
:1059100027616561FF21C8F8001066612661256175
:10592000276165610020C8F8000066612661256175
:1059300027616561C8F80000666126612561BDE8E0
:10594000F0870000001001400C0C01406666044026
:105950002DE9F04FCF4C00252146A379898846F6E2
:10596000040241F66316012B01D02BB11DE09142D8
:105970001BD0B14202D118E0B14216D1082814D28E
:10598000DFE800F00406080A0C0E101206200CE0F6
:1059900007200AE0042008E0052006E0012004E0DA
:1059A000002002E0032000E00220A1F5134C45F2A4
:1059B000103345F21057BCF1410C07D0914205D08D
:1059C000994203D0B94201D0B1427CD1082812D209
:1059D000DFE800F0110406080A0C0E1080250AE02A
:1059E000402508E0C02506E0202504E0602502E00F
:1059F000A02500E0E025B94202D14FF4585000E064
:105A00003620994205D0B94203D0B14201D045F0C9
:105A10000805914201D145F00205294600F0A4FB9A
:105A2000A088B0420AD0A9062188628802D5914296
:105A300002D303E0914201D9228061804FF4807645
:105A4000DFF854827500DFF854B24FF0000AB84214
:105A50007ED1608900F070FBB146C8F81060C8F8CC
:105A600014505F46CBF800A08026C8F81460C8F830
:105A70001060C8F810506089401C80B200F05CFBD8
:105A8000C8F81090C8F81450C7F800A0C8F81460FF
:105A9000C8F81060C8F810506089801C80B200F00F
:105AA0004BFBC8F81090C8F814502088401E011213
:105AB0003960C8F81460C8F81060C8F810506089E0
:105AC000C01C80B200E0C9E000F036FBC8F81090BE
:105AD000C8F814502078401EC1B23960C8F814606C
