:020000040800F2
:1000000018070020D501000811690008F51900083B
:100010000D690008C70500087D6D0008000000009C
:10002000000000000000000000000000416900081E
:100030007D080008000000001569000843690008F9
:10004000EF010008EF010008EF010008EF010008D0
:10005000EF010008EF010008EF010008EF010008C0
:10006000EF010008EF010008EF010008EF010008B0
:10007000EF010008EF010008EF010008EF010008A0
:10008000EF010008EF010008EF010008EF01000890
:10009000EF010008EF010008EF010008EF01000880
:1000A000EF010008EF010008EF010008EF01000870
:1000B000EF010008EF010008EF010008EF01000860
:1000C000EF010008EF010008EF010008EF01000850
:1000D000EF010008EF010008EF010008EF01000840
:1000E000EF010008EF010008EF010008EF01000830
:1000F000EF010008EF010008EF010008EF01000820
:10010000EF010008EF010008EF010008EF0100080F
:10011000EF010008EF010008EF010008EF010008FF
:10012000EF010008EF010008EF010008EF010008EF
:1001300000F002F800F03FF80AA090E8000C8244BA
:100140008344AAF10107DA4501D100F034F8AFF297
:10015000090EBAE80F0013F0010F18BFFB1A43F0A5
:1001600001031847EC8900000C8A0000103A24BFF4
:1001700078C878C1FAD8520724BF30C830C144BF0C
:1001800004680C607047000000230024002500264E
:10019000103A28BF78C1FBD8520728BF30C148BFEA
:1001A0000B607047642900F07180002070471FB514
:1001B0001FBD10B510BD00F0D1F91146FFF7F7FFD4
:1001C00006F03AFE00F0EFF903B4FFF7F2FF03BCCC
:1001D00000F0F2F90948804709480047FEE7FEE7CA
:1001E000FEE7FEE7FEE7FEE7FEE7FEE7FEE7FEE7E7
:1001F00004480549054A064B70470000B1690008EC
:100200003101000818010020180700201803002001
:10021000180300200FB41CB5074B06AA7B4469469F
:100220000090059800F07DF90020694600F08CF9F7
:100230001CBC5DF814FB00002903000070B50446E7
:1002400085690068C10601D5302600E02026C00778
:1002500007D070BDD4E9012130469047206A401C88
:1002600020626D1EF6D570BD70B5044685690078B4
:10027000C00707D170BDD4E9012120209047206A32
:10028000401C20626D1EF6D570BD00002DE9F041C6
:100290000646002410687529314616A510D0AFF324
:1002A0000080002802DA404213A507E031688A077F
:1002B00001D512A502E0490704D511A5012401E0EA
:1002C000AFF3008000210A2206F1240709E0B0FB09
:1002D000F2FCB0FBF2F302FB1C00303078541846FD
:1002E000491C0028F3D123462A463046BDE8F04198
:1002F00000F0B9B8000000002D0000002B00000045
:10030000200000002DE9F0474FF0000A894604461E
:10031000C0F820A02046E1688847002876D025282C
:1003200006D0D4E901219047206A401C2062F1E701
:10033000E168204600258847C4F81CA0064600272F
:10034000C4F818A02A2E09D0304606F035FD38B37F
:1003500004EB8708303EC8F8186019E059F8041B10
:10036000204604EB87029161E1688847012F064629
:1003700018D1E069002820DA25F020051DE0D8F822
:10038000180000EB800006EB40003038C8F8180079
:100390002046E1688847064606F00EFD0028EED1AB
:1003A000012F0AD02E2E08D12046E16888477F1CF5
:1003B0000646022F45F02005C4DBA069002803DAB9
:1003C000404245F00105A061E80701D025F0100585
:1003D000B6B1A6F14100192802D8203645F40065CF
:1003E0004A463146204625604D46FFF7DBFE58B1B0
:1003F000012806D0ED1D25F0070000F1080989E766
:1004000004E005F1040985E730468AE7206ABDE883
:10041000F0874FF0000200B5134694469646203907
:1004200022BFA0E80C50A0E80C50B1F12001BFF4AD
:10043000F7AF090728BFA0E80C5048BF0CC05DF813
:1004400004EB890028BF40F8042B08BF704748BF61
:1004500020F8022B11F0804F18BF00F8012B7047D5
:100460007047704770472DE9F0470D469946924610
:10047000044600F124080168880604D5E06921F0EB
:100480001001216000E00120A84201DD471B00E0CF
:100490000027A1697A1902EB0900081AA0612078E7
:1004A000C00602D42046FFF7C9FE002608E0D4E9C2
:1004B00001211AF806009047206A401C761C206231
:1004C0004E45F4DB2078C0060AD52046FFF7B6FE7D
:1004D00006E0D4E9012130209047206A401C2062C8
:1004E000381EA7F10107F4DC07E0D4E9012118F870
:1004F00005009047206A401C2062281EA5F10105D6
:10050000F3DC2046FFF7B0FE2078000602D502207B
:10051000BDE8F0870120FBE701694A1C0261087809
:10052000704700B58FB0CDE9013100210591054933
:100530007944CDE9031011466846FFF7E3FE0FB09A
:1005400000BD0000E5FFFFFF0A6802F8010B0A602A
:100550007047000000487047B40000207546FFF760
:10056000F9FFAE4605006946534620F00700854670
:1005700018B020B5FFF73CFEBDE820404FF0000664
:100580004FF000074FF000084FF0000B21F007017B
:10059000AC46ACE8C009ACE8C009ACE8C009ACE8BE
:1005A000C0098D46704710B50446AFF30080204661
:1005B000BDE81040FFF708BE01491820ABBEFEE7BA
:1005C00026000200704700BFFEE7000010B50024BF
:1005D0001548006820F47020134908600846006838
:1005E00040F40020086004E0601CC4B2012006F062
:1005F000FFFB0E48006808B1C82CF5DBC82C01DBF6
:10060000012010BD002404E0601CC4B2012006F0EB
:10061000EFFB0648006808B9F02CF5DBF02C01DB95
:100620000120EEE70020ECE7040801403001214200
:100630002DE9F84F00F0DCF800F0B8F8FFF7C6FF3E
:10064000CC2000F0E1F8BE2000F0DEF800F09CF8CD
:10065000834600F099F80446072C08DDE043C4B255
:100660006FEA0B0000F0FF0B4FF0000A01E04FF0C3
:10067000010AA1464FEA09200FFA80F909EB0B00A5
:100680000FFA80F9484606F019FE009006F0EAFDE0
:1006900007460022084B06F0E7FC054606F074FC0E
:1006A0000FFA80F9BAF1000F02D04846BDE8F88F82
:1006B000C9F1000000B2F9E70000E43F00B585B0E1
:1006C0000020019002900390049000BF11488069BF
:1006D00040F004000F4988610846806900F004007A
:1006E000009000BF00BF8814019001200290039089
:1006F0000220049001A9084800F0C4F80122110367
:10070000054800F05FFA00F051F8FFF75FFF05B011
:1007100000BD0000001002400008014010B517485D
:10072000006820F47020154908600846006840F40D
:1007300040300860002012490860022006F058FB93
:1007400001201049C1F8B0010C48006820F4702065
:100750000A4908600846006840F4002008600C2040
:1007600006F046FB06488038006808B1012400E026
:100770000024322006F03CFB204610BD0408014056
:10078000B00121420000214270B50026012508E099
:10079000FFF7C4FF0446E00140EA6600C6B2681CE9
:1007A000C5B2082DF4DD304670BD000010B50D480F
:1007B000006820F470200B4908600846006840F487
:1007C0004030086000200849086040F2EE2006F042
:1007D0000FFB01200549C1F8B0010F2006F008FB0E
:1007E00010BD000004080140B00121420000214278
:1007F00010B5FFF7DBFFFFF7E9FECC2000F004F8AF
:10080000442000F001F810BD70B504461848006897
:1008100020F47020164908600846006840F4403013
:100820000860012520E004F0010664106EB100208C
:1008300010490860022006F0DBFA01200E49C1F8D9
:10084000B0013C2006F0D4FA0CE000200949086011
:100850003C2006F0CDFA01200749C1F8B001022082
:1008600006F0C6FA681CC5B2082DDCDD70BD0000BC
:1008700004080140B001214200002142704772B6D5
:1008800000BFFEE72DE9F847024600239C467BE1C6
:100890004FF0010808FA03F4D1F8008008EA0400D8
:1008A000A0427DD1DFF8F4A2D1F80480A8EB0A09B8
:1008B000D0453AD014DCB8F1030F50D009DCB8F1C0
:1008C000000F31D0B8F1010F1CD0B8F1020F49D19F
:1008D00020E0B8F1110F18D0B8F1120F42D11EE08C
:1008E000B9F5881F25D006DCB9F5803F20D0B9F5D1
:1008F000801F37D11AE0B9F5001F18D0B9F5041FD1
:1009000030D117E0D1F80CC02DE0D1F80C8008F1FF
:10091000040C28E0D1F80C8008F1080C23E0D1F891
:100920000C8008F10C0C1EE000BF00BF00BF00BF30
:1009300000BF00BFD1F80880B8F1000F02D14FF01E
:10094000040C0BE0D1F80880B8F1010F03D14FF08F
:10095000080C146102E04FF0080C546103E04FF002
:10096000000C00E000BF00BFFF2801D8904601E066
:1009700002F104084646FF2802D84FEA830803E044
:10098000A3F108084FEA88084746D6F800804FF0E0
:100990000F0909FA07F928EA09080CFA07F900E033
:1009A0007AE048EA0908C6F80080D1F8048008F027
:1009B0008058B8F1805F6FD100BFDFF8E481D8F8CC
:1009C000188048F00108DFF8D891C9F81880C846A7
:1009D000D8F8188008F00108CDF8008000BF00BFEB
:1009E0004FEAB9384FEA930958F829504FEA83780B
:1009F0004FEA18794FF00F0808FA09F825EA0805B8
:100A0000DFF8A081424502D14FF0000824E0DFF872
:100A10009881424502D14FF001081DE0DFF88C813A
:100A2000424502D14FF0020816E0DFF884814245CA
:100A300002D14FF003080FE0DFF87881424502D180
:100A40004FF0040808E0DFF87081424502D14FF012
:100A5000050801E04FF006084FEA83794FEA19795B
:100A600008FA09F848EA0505DFF850814FEA9309CA
:100A700048F82950D1F8048008F48038B8F5803F50
:100A80000BD1DFF83C81D8F8008048EA0008DFF895
:100A90003091C9F800800AE075E0DFF82481D8F8C9
:100AA000008028EA0008DFF81891C9F80080D1F822
:100AB000048008F40038B8F5003F0ED1DFF800815B
:100AC00008F10408D8F8008048EA0008DFF8F09040
:100AD00009F10409C9F800800DE0DFF8E48008F1AD
:100AE0000408D8F8008028EA0008DFF8D49009F15B
:100AF0000409C9F80080D1F8048008F48018B8F51A
:100B0000801F0ED1DFF8B88008F10808D8F80080FF
:100B100048EA0008DFF8A89009F10809C9F8008040
:100B20000DE0DFF89C8008F10808D8F8008028EA7A
:100B30000008DFF88C9009F10809C9F80080D1F8A5
:100B4000048008F40018B8F5001F0ED1DFF870809B
:100B500008F10C08D8F8008048EA0008DFF8609037
:100B600009F10C09C9F800800DE0DFF8548008F1A4
:100B70000C08D8F8008028EA0008DFF8449009F152
:100B80000C09C9F800805B1CD1F8008028FA03F832
:100B9000B8F1000F7FF47CAEBDE8F88700001110BB
:100BA0000010024000080140000C0140001001400C
:100BB0000014014000180140001C014008000140E1
:100BC000000401400AB1016101E00B0403617047B8
:100BD00001480068704700000800002003480068D2
:100BE000034909780844014908607047080000205B
:100BF0001000002010B50848006840F010000649B9
:100C00000860032000F098F8002000F007F800F0DA
:100C10002BF8002010BD00000020024070B50446F3
:100C20000E4800784FF47A71B1FBF0F00C49096876
:100C3000B1FBF0F5284600F00FFC08B1012070BDB3
:100C4000102C07D200222146501E00F037F805482C
:100C5000046001E00120F2E70020F0E7100000202E
:100C6000140000200C00002008B500BF1148806966
:100C700040F001000F4988610846806900F00100DA
:100C8000009000BF00BF00BF0846C06940F0805020
:100C9000C8610846C06900F08050009000BF00BFE6
:100CA00000BF0549486820F0E06040F000704860EF
:100CB00000BF08BD00100240000001402DE9F05FB8
:100CC00080460D461646002706F05AF80746394674
:100CD0002A46334601F00700C0F1070ABAF1040FB3
:100CE00002D94FF0040A01E0C0F1070AD14600F131
:100CF000040ABAF1070F02D24FF0000A01E0A0F196
:100D0000030AD4464FF0010A0AFA09FAAAF1010AC5
:100D10000AEA020A0AFA0CFA4FF0010B0BFA0CFB72
:100D2000ABF1010B0BEA030B4AEA0B0421464046E8
:100D300006F02EF8BDE8F09F00BF00F00702064B5A
:100D400019684FF6FF031940044B0B4343EA022195
:100D5000014B196000BF70470CED00E00000FA0580
:100D600070B504460D460CB9012070BD5A480068A4
:100D700000F00700A8420ED25748006820F0070094
:100D80002843554908600846006800F00700A8425B
:100D900001D00120E9E7207800F0020002281DD1EF
:100DA000207800F00400042805D14C48406840F445
:100DB000E0604A494860207800F00800082805D122
:100DC0004648406840F460504449486043484068A1
:100DD00020F0F000A168084340494860207800F006
:100DE000010078B36068012806D13C48006800F42F
:100DF000003090B90120B8E76068022806D1374872
:100E0000006800F0007040B90120AEE73348006888
:100E100000F0020008B90120A7E73048406820F040
:100E20000300616808432D494860FFF7D1FE06467C
:100E300009E0FFF7CDFE801B41F28831884202D9DC
:100E4000032092E707E02548406800F00C00616845
:100E5000B0EB810FEDD12048006800F00700A842F8
:100E60000ED91D48006820F0070028431A49086081
:100E70000846006800F00700A84201D0012074E78E
:100E8000207800F00400042807D11448406820F4BA
:100E9000E060E168084311494860207800F00800EC
:100EA000082808D10D48406820F46050216940EAC4
:100EB000C1000A49486000F03FF808494968C1F399
:100EC0000311074A515CC84006490860064800689B
:100ED000FFF7A4FE002048E7002002400010024077
:100EE000388B0008140000200C0000200148006826
:100EF000704700001400002000B5FFF7F7FF044919
:100F00004968C1F30221034A515CC84000BD00009A
:100F100000100240488B000800B5FFF7E7FF0449C6
:100F20004968C1F3C221034A515CC84000BD0000BA
:100F300000100240488B0008F0B585B00FF26C0C31
:100F40009CE8E01001A8A0E8E0101CA52D68009521
:100F500000210022002300240020194D696801F0BF
:100F60000C05F5B1042D02D0082D19D101E015486A
:100F700019E001ADC1F38346AC5D01F4803555B194
:100F80000F4D6D68C5F340451DF805200D4D6543B7
:100F9000B5FBF2F302E00C4D04FB05F3184602E04A
:100FA00000BF084800BF00BF05B0F0BD0203040544
:100FB000060708090A0B0C0D0E0F101001020000A5
:100FC0000010024000127A0000093D00F8B5044606
:100FD0000CB90120F8BD207800F00100002878D07D
:100FE000F848406800F00C0004280CD0F548406830
:100FF00000F00C00082811D1F248406800F480305D
:10100000B0F5803F0AD1EF48006800F400300028B6
:101010005FD0606800285CD10120DBE700BF60681A
:10102000B0F5803F06D1E748006840F48030E549DC
:10103000086028E0606858B9E248006820F4803011
:10104000E04908600846006820F4802008601AE043
:101050006068B0F5A02F0BD1DA48006840F480201A
:10106000D84908600846006840F4803008600AE00B
:10107000D448006820F48030D249086008460068EF
:1010800020F48020086000BF606888B1FFF7A0FDF1
:10109000054606E0FFF79CFD401B642801D90320AC
:1010A00098E7C848006800F400300028F2D010E04B
:1010B000FFF78EFD054606E0FFF78AFD401B64281A
:1010C00001D9032086E7BF48006800F400300028FB
:1010D000F2D1207800F00200022857D1B9484068C8
:1010E00000F00C0050B1B748406800F00C00082830
:1010F00018D1B448406800F4803098B9B14800680D
:1011000000F0020020B12069012801D0012061E730
:10111000AC48006820F0F800616940EAC100A949C4
:10112000086033E02069E8B10120A7490860FFF7B3
:101130004FFD054606E0FFF74BFD401B022801D995
:10114000032047E79F48006800F002000028F2D023
:101150009C48006820F0F800616940EAC1009949A4
:10116000086013E0002098490860FFF731FD05464C
:1011700006E0FFF72DFD401B022801D9032029E7D7
:101180009048006800F002000028F2D1207800F0BA
:10119000080008282DD1A069B8B101208B4908604A
:1011A000FFF716FD054606E0FFF712FD401B02287B
:1011B00001D903200EE78348406A00F002000028AE
:1011C000F2D0012005F0A8FB13E000207F49086061
:1011D000FFF7FEFC054606E0FFF7FAFC401B02287D
:1011E00001D90320F6E67748406A00F002000028A3
:1011F000F2D1207800F00400042873D10027714850
:10120000C06900F0805070B900BF6E48C06940F0FE
:1012100080506C49C8610846C06900F08050009059
:1012200000BF00BF01276A48006800F48070B0B9B1
:101230006748006840F4807065490860FFF7C8FCA3
:10124000054606E0FFF7C4FC401B642801D90320D3
:10125000C0E65F48006800F480700028F2D000BF4C
:10126000E068012806D15748006A40F0010055495E
:10127000086227E0E06858B95248006A20F001008F
:10128000504908620846006A20F00400086219E02C
:10129000E06805280BD14B48006A40F0040049493A
:1012A00008620846006A40F0010008620AE045480A
:1012B000006A20F00100434908620846006A20F0F5
:1012C0000400086200BFE068A0B1FFF781FC05469A
:1012D00009E0FFF77DFC401B41F28831884202D9CA
:1012E000032077E622E03748006A00F00200002879
:1012F000EFD012E0FFF76CFC054608E0FFF768FC52
:10130000401B41F28831884201D9032062E62D4812
:10131000006A00F002000028F0D1012F05D1294811
:10132000C06920F080502749C86100BFE069C8B398
:101330002448406800F00C00082860D0E0690228CA
:1013400048D1002020490866FFF742FC054606E028
:10135000FFF73EFC401B022801D903203AE619485A
:10136000006800F000700028F2D1206AB0F5803FDC
:1013700007D11448406820F40030A168084311499F
:101380004860D4E9080108430E49496821F4741102
:1013900008430C49486001200B490866FFF718FC18
:1013A000054607E03DE0FFF713FC401B022801D98A
:1013B00003200FE60348006800F000700028F2D018
:1013C0002FE0000000100240000042428004424230
:1013D00000700040002014490866FFF7F9FB05463D
:1013E00006E0FFF7F5FB401B022801D90320F1E5D9
:1013F0000E48006800F000700028F2D111E0E069AA
:10140000012800D1E6E50948466806F48031206AE3
:10141000814204D106F47011606A814201D001203A
:10142000D8E50020D6E5000000004242001002404E
:10143000042808D14FF0E021096941F004014FF080
:10144000E022116107E04FF0E021096921F0040179
:101450004FF0E0221161704770B504462546681EC2
:10146000B0F1807F01D301200FE0681E4FF0E02132
:1014700048610F214FF0FF3005F08AFC00204FF04B
:10148000E021886107200861002070BD10B5034687
:10149000002200BF93F83C00012801D1022010BDBA
:1014A000012083F83C0000BF22F0FF00CC6840EA36
:1014B000040222F440708C6840EA040222F4806046
:1014C0004C6840EA040222F400600C6840EA04021E
:1014D00022F480500C6940EA040222F400504C6966
:1014E00040EA040222F48040CC6940EA0402186811
:1014F000426400BF002083F83C0000BF00BFCEE77D
:1015000030B502460B4600BF92F83C00012801D1DD
:10151000022030BD012082F83C0000BF022082F88A
:101520003D00106844681068816824F070041868F1
:10153000044310684460144D1068A84213D0134D42
:101540001068A8420FD01068B0F1804F0BD0104D3A
:101550001068A84207D00F4D1068A84203D00E4D66
:101560001068A84205D121F0800158680143106835
:101570008160012082F83D0000BF002082F83C001D
:1015800000BF00BFC5E70000002C0140003401404F
:101590000004004000080040000C004010B5044664
:1015A0000CB9012010BD94F83D0028B9002084F842
:1015B0003C00204600F026F8022084F83D00211D62
:1015C000206805F0F7F9012084F8460000BF84F890
:1015D0003E0001213F200155402001554120015589
:1015E00000BF00BF012084F8420043200155442081
:1015F00001554520015500BF012084F83D00002021
:10160000D0E7000008B5094A016891420DD100BF3A
:101610000749896941F40061054A91611146896968
:1016200001F40061009100BF00BF08BD002C014023
:10163000001002402DE9F04104460D4600BF94F829
:101640003C00012802D10220BDE8F081012084F88D
:101650003C0000BF022084F83D002068866826F028
:10166000770626F47F46206886602868502833D0A5
:101670000CDC202850D004DC00284BD0102851D19D
:1016800049E0302849D040284CD139E060282DD09D
:10169000702807D0B0F5805F03D0B0F5005F41D16E
:1016A0000DE040E0D5E902136A68206805F0D0F942
:1016B0002068866846F077062068866033E0D5E9C2
:1016C00002136A68206805F0C3F92068806840F456
:1016D00080402168886026E0EA686968206805F033
:1016E000A7FA5021206805F0BEF91CE0EA68696895
:1016F000206805F0B0FA6021206805F0B4F912E026
:10170000EA686968206805F093FA4021206805F0CE
:10171000AAF908E000BF00BF00BF2968206805F0F3
:10172000A2F900E000BF00BF012084F83D0000BF27
:10173000002084F83C0000BF00BF85E710B586B0EC
:101740000446002002900390049005900E49206802
:10175000884216D100BF0D48806940F004000B4953
:1017600088610846806900F00400019000BF00BF56
:10177000C814029002200390059002A90448FFF7C4
:1017800081F806B010BD0000002C0140001002409E
:101790000008014070B504460D46164600BF94F897
:1017A0003C00012801D1022070BD012084F83C00DA
:1017B00000BF36B1042E1BD0082E31D00C2E5ED1C6
:1017C00045E02946206805F057F92068806940F017
:1017D0000800216888612068806920F00400216881
:1017E000886120688069296908432168886147E029
:1017F0002946206805F078F92068806940F4006087
:10180000216888612068806920F48060216888618F
:1018100020688069296940EA0120216888612FE0F9
:101820002946206805F09EF92068C06940F008004C
:101830002168C8612068C06920F004002168C8617F
:101840002068C069296908432168C86118E02946F1
:10185000206805F0C3F92068C06940F40060216881
:10186000C8612068C06920F480602168C861206870
:10187000C069296940EA01202168C86100E000BF11
:1018800000BF00BF002084F83C0000BF00BF8BE712
:1018900010B504460CB9012010BD94F83D0028B9DC
:1018A000002084F83C00204600F025F8022084F84F
:1018B0003D00211D206805F07DF8012084F84600D8
:1018C00000BF84F83E0001213F2001554020015512
:1018D0004120015500BF00BF012084F84200432091
:1018E0000155442001554520015500BF012084F8D1
:1018F0003D000020D0E7704710B504460CB9012028
:1019000010BDA06900B100E000BF94F83D0028B907
:10191000002084F83C00204600F028F8242084F8B9
:101920003D002068C06820F400502168C86020464F
:1019300005F0A6F92068006920F49040216808614C
:101940002068406920F02A00216848612068C0684A
:1019500040F400502168C86000202064202084F8F2
:101960003D0084F83E000020CAE7000010B586B0B4
:101970000446002002900390049005901A492068C4
:1019800088422ED100BF1948806940F48040174931
:1019900088610846806900F48040019000BF00BF64
:1019A00000BF0846806940F00400886108468069ED
:1019B00000F00400019000BF00BF48150290022013
:1019C00003900320059002A90948FEF75BFF4FF43E
:1019D0008060029000200390049002A90448FEF762
:1019E00051FF06B010BD0000003801400010024059
:1019F0000008014000BFFEE770B5044600261D4800
:101A00000588408845431B48808846F60401884283
:101A100016D118488079012812D100201549887103
:101A20002A2048812B2088810021084604F032FBBF
:101A30000120104988712B2048812A20888103E0E9
:101A40000021084604F026FB04F0EEFD00260DE020
:101A50004FF48070084908614000486107480460FD
:101A600080204861086180000861761CAE42EFD397
:101A700070BD0000A4000020001001400C0C0140CB
:101A800010B50446002C66D16C498871F02008809E
:101A90004FF4A07048800846808849F2413188425E
:101AA0000BD06648808846F60401884205D063481A
:101AB000808845F2103188421AD12C205F49088174
:101AC0002A2048812B2088810846808846F6040118
:101AD000884205D05948808845F21031884206D1A5
:101AE0004FF4A070554908804FF4F0704880A1E091
:101AF0005248808845F21051884210D14FF430503E
:101B00004E4908814FF4285048814FF42C50888169
:101B10004FF4F07008804FF4487048808AE04748DE
:101B2000808841F6631188420DD12C2043490881F9
:101B30002B2048812A2088814FF4F07008804FF4D0
:101B40004870488076E022203C4908812020488166
:101B5000212088816EE00120384988714FF4A070FF
:101B60000880F02048800846808849F24131884248
:101B700005D03248808845F21031884207D12C20A8
:101B80002E4908812A2048812B2088813FE02B485C
:101B9000808846F60401884207D12C202749088115
:101BA0002B2048812A20888131E02448808845F212
:101BB0001051884210D14FF43050204908814FF421
:101BC000285048814FF42C5088814FF44870088089
:101BD0004FF4F07048801AE01848808841F663118D
:101BE00088420DD12C20154908812A2048812B20BC
:101BF00088814FF4487008804FF4F070488006E008
:101C000022200E49088121204881202088810B480C
:101C1000808846F60401884205D00848808845F24D
:101C20001031884206D14FF4F070044908804FF417
:101C3000A0704880002004F001F810BDA40000202E
:101C400070B504460D461646D348808849F24131A6
:101C5000884205D0D048808845F21031884240D172
:101C6000CD49488904F0CEFC4FF48070CB4908611F
:101C7000400048612012CA4908608020C749486175
:101C80000861800008614010086140004861E0B2CE
:101C9000C34908608020C14948610861800008612B
:101CA000BD49888904F0AEFC4FF48070BB490861DF
:101CB000400048612812BA4908608020B74948614D
:101CC0000861800008614010086140004861E8B286
:101CD000B34908608020B14948610861800008610B
:101CE0003DE1AD48808845F21051884250D1AA4963
:101CF000488904F087FC4FF48070A84908614000CF
:101D000048612012A64908608020A4494861086102
:101D100080000861A0494989491C88B204F072FC1E
:101D20004FF480709D49086140004861E0B29C49D1
:101D300008608020994948610861800008619649DF
:101D4000888904F05FFC4FF480709449086140007A
:101D500048612812924908608020904948610861D2
:101D6000800008618C498989491C88B204F04AFCCA
:101D70004FF480708949086140004861E8B28849A1
:101D80000860802085494861086180000861E6E0BC
:101D90008148808841F6631188427DD17E488079F0
:101DA00020B97D480088401E001B84B27A494889CA
:101DB00004F028FC4FF480707849086140004861C5
:101DC00020127749086080207449486108618000CA
:101DD00008614010086140004861E0B27049086045
:101DE00080206E49486108618000086140100861E8
:101DF0004000486120126A490860802067494861B4
:101E00000861800008614010086140004861E0B24C
:101E10006349086080206149486108618000086169
:101E20005D49888904F0EEFB4FF480705B490861DE
:101E30004000486128125A4908608020574948618B
:101E40000861800008614010086140004861E8B204
:101E50005349086080205149486108618000086149
:101E6000401008614000486128124D4908608020F8
:101E70004A494861086180000861401008614000DB
:101E80004861E8B2464908608020444948610861D9
:101E90008000086163E0FFE73F48808846F6040160
:101EA000884249D13C488079012804D13A480088C9
:101EB000401E001B84B23849488904F0A3FB4FF44C
:101EC000807036490861400048612012344908603A
:101ED0008020324948610861800008614010086133
:101EE00040004861E0B22E49086080202B494861DB
:101EF0000861800008612849888904F083FB4FF459
:101F00008070264908614000486128122449086011
:101F10008020224948610861800008614010086102
:101F200040004861E8B21E49086080201B494861B2
:101F300008618000086112E017488079012804D107
:101F400015480088401E001B84B213494889214669
:101F500004F072FB10498889294604F06DFB4FF4A8
:101F600080700E494861400048610B4800890C4967
:101F700008608020094948610861800008614010BC
:101F80000861400048610648066080204861086199
:101F90008000086170BD0000A40000200010014016
:101FA0000C0C014010B5322004F018FF0121002074
:101FB00004F042FB322004F011FF002003F0CCFDBE
:101FC000FE49888008468088FF280ADB084680880A
:101FD0004FF6FF71884204D0F8488088B0F5134F5F
:101FE0007ED1D32004F00EFB03F07EFD03F07CFDD8
:101FF00003F07AFDF1498880084680884FF6FF712A
:1020000001EA0020ED49888003F06EFDEB498988E4
:102010000843EA4988800846808849F2413188426D
:102020005ED0BF2004F0EEFA03F05EFD03F05CFD2D
:1020300003F05AFD03F058FDE04988800846808887
:102040004FF6FF7101EA0020DC49888003F04CFD67
:10205000DA4989880843D94988800846808846F645
:102060000401884274D0D42004F0CCFA03F03CFD83
:1020700003F03AFD03F038FDD04988800846808897
:102080004FF6FF7101EA0020CC49888003F02CFD57
:10209000CA4989880843C94988800846808845F22A
:1020A0001031884254D04FF45A4004F0ABFA03F098
:1020B0001BFD4FF45B4004F0A5FA03F015FDBF498A
:1020C0008880084680884FF6FF7101EA0020BB49EE
:1020D00088804FF45C4004F095FA03F005FD00E0C1
:1020E00036E0B64989880843B44988800846808824
:1020F000B0F5004F02D145F210508880AF4880887B
:1021000045F21051884223D0A12004F07BFA03F05D
:10211000EBFCAA49888003F0E7FCA84988800846C0
:1021200080884FF6FF7101EA0020A449888003F0FF
:10213000DBFCA24989880843A0498880084680883A
:1021400045F26171884203D141F663109B49888052
:102150009A48808849F2413188427CD1CF2004F0EE
:1021600051FA002004F03CFAC12004F039FA302082
:1021700004F036FAED2004F045FA642004F030FA59
:10218000032004F02DFA122004F02AFA812004F032
:1021900027FAE82004F036FA852004F021FA10200E
:1021A00004F01EFA7A2004F01BFACB2004F02AFA7D
:1021B000392004F015FA2C2004F012FA002004F063
:1021C0000FFA342004F00CFA022004F009FAF72088
:1021D00004F018FA202004F003FAEA2004F012FABE
:1021E000002004F0FDF9002004F0FAF9C02004F00A
:1021F00009FA1B2004F0F4F9C12004F003FA0120CD
:1022000004F0EEF9C52004F0FDF9302004F0E8F9FF
:10221000302004F0E5F9C72004F0F4F9B72004F009
:10222000DFF9362004F0EEF9482004F0D9F93A201D
:1022300004F0E8F9552004F0D3F9B12004F0E2F9F4
:10224000002004F0CDF91A2004F0CAF9B62004F0F9
:10225000D9F90A2000E099E004F0C2F9A22004F0C4
:10226000BFF9F22004F0CEF9002004F0B9F92620DD
:1022700004F0C8F9012004F0B3F9E02004F0C2F939
:102280000F2004F0ADF92A2004F0AAF9282004F068
:10229000A7F9082004F0A4F90E2004F0A1F9082001
:1022A00004F09EF9542004F09BF9A92004F098F959
:1022B000432004F095F90A2004F092F90F2004F06D
:1022C0008FF9002004F08CF9002004F089F9002037
:1022D00004F086F9002004F083F9E12004F092F97B
:1022E000002004F07DF9152004F07AF9172004F09D
:1022F00077F9072004F074F9112004F071F9062031
:1023000004F06EF92B2004F06BF9562004F068F904
:102310003C2004F065F9052004F062F9102004F077
:102320005FF90F2004F05CF93F2004F059F93F20D9
:1023300004F056F90F2004F053F92B2004F062F951
:10234000002004F04DF9002004F04AF9012004F0C7
:1023500047F93F2004F044F92A2004F053F9002003
:1023600004F03EF9002004F03BF9002004F038F9B5
:10237000EF2004F035F9112004F044F9782004F03E
:102380002DFD292004F03EF903F09DBB0B48808809
:1023900046F6040188427DD1112004F033F914205F
:1023A00004F01CFDD02004F02DF9072004F018F9EA
:1023B000422004F015F91D2002E00000A4000020D6
:1023C00004F00EF9D12004F01DF9002004F008F902
:1023D0001A2004F005F9092004F002F9D22004F0D3
:1023E00011F9012004F0FCF8222004F0F9F8C020D3
:1023F00004F008F9102004F0F3F83B2004F0F0F8A2
:10240000002004F0EDF8022004F0EAF8112004F0B6
:10241000E7F8C52004F0F6F8032004F0E1F8C8203E
:1024200004F0F0F8002004F0DBF8252004F0D8F8E0
:10243000212004F0D5F8052004F0D2F8002004F0A3
:10244000CFF80A2004F0CCF8652004F0C9F8252064
:1024500004F0C6F8772004F0C3F8502004F0C0F868
:102460000F2004F0BDF8002004F0BAF8F82004F0C2
:10247000C9F8012004F0B4F8FE2004F0C3F80020ED
:1024800004F0AEF8022004F0ABF8202004F0BAF813
:10249000362000E02FE004F0B5F8082004F0A0F8A2
:1024A0003A2004F0AFF8552004F09AF82B2004F0FD
:1024B000A9F8002004F094F8002004F091F801201D
:1024C00004F08EF83F2004F08BF82A2004F09AF8EC
:1024D000002004F085F8002004F082F8012004F0C8
:1024E0007FF8DF2004F07CF8782004F077FC2920C6
:1024F00004F088F848E7FE48808845F210318842A9
:1025000040F07C87ED2004F07DF8012004F068F8AD
:10251000FE2004F065F8EE2004F074F8DE2004F0EC
:102520005FF8212004F05CF8F12004F06BF8012042
:1025300004F056F8DF2004F065F8102004F050F89D
:10254000C42004F05FF88F2004F04AF8C62004F09D
:1025500059F8002004F044F8E22004F041F8E220A9
:1025600004F03EF8E22004F03BF8BF2004F04AF803
:10257000AA2004F035F8B02004F044F80D2004F04F
:102580002FF8002004F02CF80D2004F029F800208A
:1025900004F026F8112004F023F8002004F020F8BD
:1025A000192004F01DF8002004F01AF8212004F08E
:1025B00017F8002004F014F82D2004F011F8002082
:1025C00004F00EF83D2004F00BF8002004F008F8A9
:1025D0005D2004F005F8002004F002F85D2003F00F
:1025E000FFFF002003F0FCFFB12004F00BF8802077
:1025F00003F0F6FF002003F0F3FF8B2003F0F0FF61
:10260000002003F0EDFF962003F0EAFF002003F026
:10261000E7FFB22003F0F6FF002003F0E1FF002007
:1026200003F0DEFF022003F0DBFF002003F0D8FF01
:10263000032003F0D5FF002003F0D2FFB32003F006
:10264000E1FF002003F0CCFF002003F0C9FF0020D1
:1026500003F0C6FF002003F0C3FF002003F0C0FF1B
:10266000002003F0BDFF002003F0BAFF002003F0BC
:10267000B7FF002003F0B4FF002003F0B1FF0020FB
:1026800003F0AEFF002003F0ABFF002003F0A8FF33
:10269000002003F0A5FF002003F0A2FF002003F0BC
:1026A0009FFF002003F09CFF002003F099FF002013
:1026B00003F096FF002003F093FF002003F090FF4B
:1026C000002003F08DFF002003F08AFF002003F0BC
:1026D00087FFB42003F096FF8B2003F081FF0020DA
:1026E00003F07EFF962003F07BFF002003F078FFCD
:1026F000A12003F075FF002003F072FFB52003F066
:1027000081FF022003F06CFF002003F069FF03202B
:1027100003F066FF002003F063FF042003F060FF76
:10272000002003F05DFFB62003F06CFF002003F0F3
:1027300057FF002003F054FFB72003F063FF002091
:1027400003F04EFF002003F04BFF3F2003F048FF53
:10275000002003F045FF5E2003F042FF002003F05D
:102760003FFF642003F03CFF002003F039FF8C2082
:1027700003F036FF002003F033FFAC2003F030FFFE
:10278000002003F02DFFDC2003F02AFF002003F0DF
:1027900027FF702003F024FF002003F021FF90208A
:1027A00003F01EFF002003F01BFFEB2003F018FFD7
:1027B000002003F015FFDC2003F012FF002003F0DF
:1027C0000FFFB82003F01EFF002003F009FF0020D8
:1027D00003F006FF002003F003FF002003F000FFDA
:1027E000002003F0FDFE002003F0FAFE002003F0BD
:1027F000F7FE002003F0F4FEBA2003F003FF2420CC
:1028000003F0EEFE002003F0EBFE002003F0E8FEF4
:10281000002003F0E5FEC12003F0F4FE202003F0C9
:10282000DFFE002003F0DCFE542003F0D9FE002080
:1028300003F0D6FEFF2003F0D3FE002003F0D0FE0D
:10284000C22003F0DFFE0A2003F0CAFE002003F0DE
:10285000C7FE042003F0C4FE002003F0C1FEC32025
:1028600003F0D0FE3C2003F0BBFE002003F0B8FED6
:102870003A2003F0B5FE002003F0B2FE392003F049
:10288000AFFE002003F0ACFE372003F0A9FE0020CD
:1028900003F0A6FE3C2003F0A3FE002003F0A0FE00
:1028A000362003F09DFE002003F09AFE322003F054
:1028B00097FE002003F094FE2F2003F091FE0020ED
:1028C00003F08EFE2C2003F08BFE002003F088FE28
:1028D000292003F085FE002003F082FE262003F06D
:1028E0007FFE002003F07CFE242003F079FE01E04F
:1028F000A4000020002003F073FE242003F070FEEB
:10290000002003F06DFE232003F06AFE002003F098
:1029100067FE3C2003F064FE002003F061FE3620D9
:1029200003F05EFE002003F05BFE322003F058FE51
:10293000002003F055FE2F2003F052FE002003F08C
:102940004FFE2C2003F04CFE002003F049FE29200E
:1029500003F046FE002003F043FE262003F040FE75
:10296000002003F03DFE242003F03AFE002003F097
:1029700037FE242003F034FE002003F031FE232034
:1029800003F02EFE002003F02BFEC42003F03AFEDD
:10299000622003F025FE002003F022FE052003F054
:1029A0001FFE002003F01CFE842003F019FE00200F
:1029B00003F016FEF02003F013FE002003F010FEDB
:1029C000182003F00DFE002003F00AFEA42003F0FF
:1029D00007FE002003F004FE182003F001FE002093
:1029E00003F0FEFD502003F0FBFD002003F0F8FD96
:1029F0000C2003F0F5FD002003F0F2FD172003F09A
:102A0000EFFD002003F0ECFD952003F0E9FD002030
:102A100003F0E6FDF32003F0E3FD002003F0E0FD0A
:102A2000E62003F0DDFD002003F0DAFDC52003F011
:102A3000E9FD322003F0D4FD002003F0D1FD442055
:102A400003F0CEFD002003F0CBFD652003F0C8FDB0
:102A5000002003F0C5FD762003F0C2FD002003F046
:102A6000BFFD882003F0BCFD002003F0B9FDC620A7
:102A700003F0C8FD202003F0B3FD002003F0B0FDFB
:102A8000172003F0ADFD002003F0AAFD012003F0A4
:102A9000A7FD002003F0A4FDC72003F0B3FD002034
:102AA00003F09EFD002003F09BFD002003F098FD45
:102AB000002003F095FDC82003F0A4FD002003F0E2
:102AC0008FFD002003F08CFD002003F089FD002025
:102AD00003F086FDC92003F095FD002003F080FD82
:102AE000002003F07DFD002003F07AFD002003F0BC
:102AF00077FD002003F074FD002003F071FD00203D
:102B000003F06EFD002003F06BFD002003F068FD74
:102B1000002003F065FD002003F062FD002003F0BB
:102B20005FFD002003F05CFD002003F059FD002054
:102B300003F056FD002003F053FDE02003F062FD9A
:102B4000162003F04DFD002003F04AFD1C2003F089
:102B500047FD002003F044FD212003F041FD00204B
:102B600003F03EFD362003F03BFD002003F038FD6E
:102B7000462003F035FD002003F032FD522003F023
:102B80002FFD002003F02CFD642003F029FD002020
:102B900003F026FD7A2003F023FD002003F020FD42
:102BA0008B2003F01DFD002003F01AFD992003F097
:102BB00017FD002003F014FDA82003F011FD0020F4
:102BC00003F00EFDB92003F00BFD002003F008FD1B
:102BD000C42003F005FD002003F002FDCA2003F02D
:102BE000FFFC002003F0FCFCD22003F0F9FC0020E5
:102BF00003F0F6FCD92003F0F3FC002003F0F0FC16
:102C0000E02003F0EDFC002003F0EAFCF32003F0E9
:102C1000E7FC002003F0E4FCE12003F0F3FC1620C5
:102C200003F0DEFC002003F0DBFC1C2003F0D8FCEA
:102C3000002003F0D5FC222003F0D2FC002003F09A
:102C4000CFFC362003F0CCFC002003F0C9FC45206B
:102C500003F0C6FC002003F0C3FC522003F0C0FCCC
:102C6000002003F0BDFC642003F0BAFC002003F058
:102C7000B7FC7A2003F0B4FC002003F0B1FC8B20F9
:102C800003F0AEFC002003F0ABFC992003F0A8FC9D
:102C9000002003F0A5FCA82003F0A2FC002003F014
:102CA0009FFCB92003F09CFC002003F099FCC42099
:102CB00003F096FC002003F093FCCA2003F090FC84
:102CC000002003F08DFCD22003F08AFC002003F0EA
:102CD00087FCD82003F084FC002003F081FCE02076
:102CE00003F07EFC002003F07BFCF32003F078FC73
:102CF000002003F075FCE22003F084FC052003F0C3
:102D00006FFC002003F06CFC0B2003F069FC00203A
:102D100003F066FC1B2003F063FC002003F060FC62
:102D2000342003F05DFC002003F05AFC442003F043
:102D300057FC002003F054FC4F2003F051FC00200E
:102D400003F04EFC612003F04BFC002003F048FC34
:102D5000792003F045FC002003F042FC882003F0BA
:102D60003FFC002003F03CFC972003F039FC0020DE
:102D700003F036FCA62003F033FC002003F030FC07
:102D8000B72003F02DFC002003F02AFCC22003F042
:102D900027FC002003F024FCC72003F021FC0020C6
:102DA00003F01EFCD12003F01BFC002003F018FCF4
:102DB000D62003F015FC002003F012FCDD2003F008
:102DC0000FFC002003F00CFCF32003F009FC0020B2
:102DD00003F006FCE32003F015FC052003F000FCE3
:102DE000002003F0FDFB0A2003F0FAFB002003F0B3
:102DF000F7FB1C2003F0F4FB002003F0F1FB332071
:102E000003F0EEFB002003F0EBFB442003F0E8FBB3
:102E1000002003F0E5FB502003F0E2FB002003F06C
:102E2000DFFB622003F0DCFB002003F0D9FB7820FD
:102E300003F0D6FB002003F0D3FB882003F0D0FB87
:102E4000002003F0CDFB972003F0CAFB002003F025
:102E5000C7FBA62003F0C4FB002003F0C1FBB72092
:102E600003F0BEFB002003F0BBFBC22003F0B8FB65
:102E7000002003F0B5FBC72003F0B2FB002003F0F5
:102E8000AFFBD12003F0ACFB002003F0A9FBD52061
:102E900003F0A6FB002003F0A3FBDD2003F0A0FB62
:102EA000002003F09DFBF32003F09AFB002003F0C9
:102EB00097FBE42003F0A6FB012003F091FB002028
:102EC00003F08EFB012003F08BFB002003F088FB56
:102ED000022003F085FB002003F082FB2A2003F090
:102EE0007FFB002003F07CFB3C2003F079FB0020FB
:102EF00003F076FB4B2003F073FB002003F070FB24
:102F00005D2003F06DFB002003F06AFB742003F0EA
:102F100067FB002003F064FB842003F061FB0020CA
:102F200003F05EFB932003F05BFB002003F058FBF3
:102F3000A22003F055FB002003F052FBB32003F066
:102F40004FFB002003F04CFBBE2003F049FB0020A8
:102F500003F046FBC42003F043FB002003F040FBDA
:102F6000CD2003F03DFB002003F03AFBD32003F01B
:102F700037FB002003F034FBDD2003F031FB0020A1
:102F800003F02EFBF32003F02BFB002003F028FBC3
:102F9000E52003F037FB002003F022FB002003F0C4
:102FA0001FFB002003F01CFB002003F019FB022094
:102FB00003F016FB002003F013FB292003F010FBA5
:102FC000002003F00DFB3C2003F00AFB002003F07F
:102FD00007FB4B2003F004FB002003F001FB5D2006
:102FE00003F0FEFA002003F0FBFA742003F0F8FA75
:102FF000002003F0F5FA842003F0F2FA002003F039
:10300000EFFA932003F0ECFA002003F0E9FAA22093
:1030100003F0E6FA002003F0E3FAB32003F0E0FA4D
:10302000002003F0DDFABE2003F0DAFA002003F0FE
:10303000D7FAC42003F0D4FA002003F0D1FACD204F
:1030400003F0CEFA002003F0CBFAD32003F0C8FA45
:10305000002003F0C5FADC2003F0C2FA002003F0E0
:10306000BFFAF32003F0BCFA002003F0B9FAE6201F
:1030700003F0C8FA112003F0B3FA002003F0B0FA0D
:10308000342003F0ADFA002003F0AAFA562003F032
:10309000A7FA002003F0A4FA762003F0A1FA00209A
:1030A00003F09EFA772003F09BFA002003F098FAD1
:1030B000662003F095FA002003F092FA882003F0CE
:1030C0008FFA002003F08CFA992003F089FA00208F
:1030D00003F086FABB2003F083FA002003F080FAA5
:1030E000992003F07DFA002003F07AFA662003F0BD
:1030F00077FA002003F074FA552003F071FA0020EB
:1031000003F06EFA552003F06BFA002003F068FA22
:10311000452003F065FA002003F062FA432003F033
:103120005FFA002003F05CFA442003F059FA002013
:1031300003F056FAE72003F065FA322003F050FA64
:10314000002003F04DFA552003F04AFA002003F066
:1031500047FA762003F044FA002003F041FA662093
:1031600003F03EFA002003F03BFA672003F038FA40
:10317000002003F035FA672003F032FA002003F054
:103180002FFA872003F02CFA002003F029FA992067
:1031900003F026FA002003F023FABB2003F020FA04
:1031A000002003F01DFA992003F01AFA002003F022
:1031B00017FA772003F014FA002003F011FA4420E4
:1031C00003F00EFA002003F00BFA562003F008FA81
:1031D000002003F005FA232003F002FA002003F098
:1031E000FFF9332003F0FCF9002003F0F9F9452042
:1031F00003F0F6F9002003F0F3F9E82003F002FAF7
:10320000002003F0EDF9002003F0EAF9992003F023
:10321000E7F9002003F0E4F9872003F0E1F900204A
:1032200003F0DEF9882003F0DBF9002003F0D8F981
:10323000772003F0D5F9002003F0D2F9662003F0DF
:10324000CFF9002003F0CCF9882003F0C9F9002061
:1032500003F0C6F9AA2003F0C3F9002003F0C0F977
:10326000BB2003F0BDF9002003F0BAF9992003F068
:10327000B7F9002003F0B4F9662003F0B1F900209B
:1032800003F0AEF9552003F0ABF9002003F0A8F9E4
:10329000552003F0A5F9002003F0A2F9442003F023
:1032A0009FF9002003F09CF9442003F099F90020D5
:1032B00003F096F9552003F093F9002003F090F9FC
:1032C000E92003F09FF9AA2003F08AF9002003F017
:1032D00087F9002003F084F9002003F081F9002031
:1032E00003F090F9AA2003F07BF9CF2003F08AF9CC
:1032F000002003F075F9002003F072F9002003F0BC
:103300006FF9002003F06CF9002003F069F9002048
:1033100003F066F9002003F063F9002003F060F980
:10332000002003F05DF9002003F05AF9002003F0BB
:1033300057F9002003F054F9002003F051F9002060
:1033400003F04EF9002003F04BF9002003F048F998
:10335000002003F045F9F02003F054F9002003F0B9
:103360003FF9502003F03CF9002003F039F9002028
:1033700003F036F9002003F033F9F32003F042F9AB
:10338000002003F02DF9F92003F03CF9062003F0AA
:1033900027F9102003F024F9292003F021F9002057
:1033A00003F01EF93A2003F02DF9552003F018F927
:1033B000112003F027F9642003F010FD292003F009
:1033C00021F9352003F01EF9002003F009F95120FE
:1033D00003F018F9FF2003F003F9532003F012F96A
:1033E0002C2003F0FDF8552003F00CF9822003F0A7
:1033F000F7F82C2003F006F902F065BBFE48808840
:1034000045F2105188427DD155214FF4704003F0B0
:1034100013F9AA214FF2010003F00EF952214FF2E5
:10342000020003F009F908214FF2030003F004F948
:1034300001214FF2040003F0FFF80D214FF430405A
:1034400003F0FAF80D214BF2010003F0F5F80D211D
:103450004BF2020003F0F0F834214FF4364003F051
:10346000EBF834214BF2016003F0E6F834214BF223
:10347000026003F0E1F80D214FF4314003F0DCF875
:103480000D214BF2011003F0D7F80D214BF2021081
:1034900003F0D2F834214FF4374003F0CDF8342153
:1034A0004BF2017003F0C8F834214BF2027003F0C4
:1034B000C3F800214FF4324003F0BEF800214BF274
:1034C000012003F0B9F800214BF2022003F0B4F818
:1034D00024214FF4384003F0AFF824214BF60100CB
:1034E00003F0AAF824214BF6020003F0A5F801210D
:1034F0004FF43F4003F0A0F80F214FF4334003F0A6
:103500009BF800E0FDE30F214BF2013003F094F84B
:103510000F214BF2023003F08FF834214FF4394081
:1035200003F08AF834214BF6011003F085F83421BA
:103530004BF6021003F080F808214FF4354003F0F9
:103540007BF808214BF2015003F076F808214BF28A
:10355000025003F071F803214FF4424003F06CF87D
:1035600024214FF43A4003F067F824214BF6012060
:1035700003F062F824214BF6022003F05DF80021ED
:103580004FF43C4003F058F878214BF6014003F02B
:1035900053F800214BF6024003F04EF800214FF49F
:1035A0003D4003F049F878214BF6015003F044F810
:1035B00000214BF6025003F03FF800214FF43E404B
:1035C00003F03AF864214BF6016003F035F800216E
:1035D0004FF4514003F030F833214DF2011003F065
:1035E0002BF800214DF2021003F026F834214DF2A1
:1035F000031003F021F800214DF2041003F01CF831
:103600003A214DF2051003F017F800214DF2061093
:1036100003F012F84A214DF2071003F00DF80021D3
:103620004DF2081003F008F85C214DF2091003F088
:1036300003F800214DF20A1002F0FEFF81214DF245
:103640000B1002F0F9FF00214DF20C1002F0F4FF14
:10365000A6214DF20D1002F0EFFF00214DF20E10E9
:1036600002F0EAFFE5214DF20F1002F0E5FF012123
:103670004DF2101002F0E0FF13214DF2111002F094
:10368000DBFF01214DF2121002F0D6FF54214DF262
:10369000131002F0D1FF01214DF2141002F0CCFF03
:1036A00082214DF2151002F0C7FF01214DF21610D4
:1036B00002F0C2FFCA214DF2171002F0BDFF022135
:1036C0004DF2181002F0B8FF00214DF2191002F06F
:1036D000B3FF02214DF21A1002F0AEFF01214DF2AC
:1036E0001B1002F0A9FF02214DF21C1002F0A4FFF2
:1036F00034214DF21D1002F09FFF02214DF21E10E9
:1037000002F09AFF67214DF21F1002F095FF02218F
:103710004DF2201002F090FF84214DF2211002F0B2
:103720008BFF02214DF2221002F086FFA4214DF200
:10373000231002F081FF02214DF2241002F07CFFE1
:10374000B7214DF2251002F077FF02214DF226102D
:1037500002F072FFCF214DF2271002F06DFF02211F
:103760004DF2281002F068FFDE214DF2291002F020
:1037700063FF02214DF22A1002F05EFFF2214DF2AA
:103780002B1002F059FF02214DF22C1002F054FFD1
:10379000FE214DF22D1002F04FFF03214DF22E10AD
:1037A00002F04AFF10214DF22F1002F045FF0321D5
:1037B0004DF2301002F040FF33214DF2311002F093
:1037C0003BFF03214DF2321002F036FF6D214DF226
:1037D000331002F031FF00214FF4524002F02CFF71
:1037E00033214DF2012002F027FF00214DF202208B
:1037F00002F022FF342101E0A40000204DF203205A
:1038000002F01AFF00214DF2042002F015FF3A21C8
:103810004DF2052002F010FF00214DF2062002F0CB
:103820000BFF4A214DF2072002F006FF00214DF266
:10383000082002F001FF5C214DF2092002F0FCFE9D
:1038400000214DF20A2002F0F7FE81214DF20B20FB
:1038500002F0F2FE00214DF20C2002F0EDFEA62156
:103860004DF20D2002F0E8FE00214DF20E2002F094
:10387000E3FEE5214DF20F2002F0DEFE01214DF2C4
:10388000102002F0D9FE13214DF2112002F0D4FED7
:1038900001214DF2122002F0CFFE54214DF21320EF
:1038A00002F0CAFE01214DF2142002F0C5FE822171
:1038B0004DF2152002F0C0FE01214DF2162002F05B
:1038C000BBFECA214DF2172002F0B6FE02214DF2D6
:1038D000182002F0B1FE00214DF2192002F0ACFEDA
:1038E00002214DF21A2002F0A7FE01214DF21B2009
:1038F00002F0A2FE02214DF21C2002F09DFE3421B6
:103900004DF21D2002F098FE02214DF21E2002F021
:1039100093FE67214DF21F2002F08EFE02214DF230
:10392000202002F089FE84214DF2212002F084FE45
:1039300002214DF2222002F07FFEA4214DF223202D
:1039400002F07AFE02214DF2242002F075FEB7212A
:103950004DF2252002F070FE02214DF2262002F0E9
:103960006BFECF214DF2272002F066FE02214DF2C0
:10397000282002F061FEDE214DF2292002F05CFEDB
:1039800002214DF22A2002F057FEF2214DF22B20A7
:1039900002F052FE02214DF22C2002F04DFEFE21DB
:1039A0004DF22D2002F048FE03214DF22E2002F0B0
:1039B00043FE10214DF22F2002F03EFE03214DF276
:1039C000302002F039FE33214DF2312002F034FE76
:1039D00003214DF2322002F02FFE6D214DF23320F3
:1039E00002F02AFE00214FF4534002F025FE33215D
:1039F0004DF2013002F020FE00214DF2023002F0C3
:103A00001BFE34214DF2033002F016FE00214DF270
:103A1000043002F011FE3A214DF2053002F00CFEA6
:103A200000214DF2063002F007FE4A214DF2073028
:103A300002F002FE00214DF2083002F0FDFD5C2193
:103A40004DF2093002F0F8FD00214DF20A3002F08B
:103A5000F3FD81214DF20B3002F0EEFD00214DF21D
:103A60000C3002F0E9FDA6214DF20D3002F0E4FD2C
:103A700000214DF20E3002F0DFFDE5214DF20F3056
:103A800002F0DAFD01214DF2103002F0D5FD1321D4
:103A90004DF2113002F0D0FD01214DF2123002F052
:103AA000CBFD54214DF2133002F0C6FD01214DF241
:103AB000143002F0C1FD82214DF2153002F0BCFD40
:103AC00001214DF2163002F0B7FDCA214DF2173038
:103AD00002F0B2FD02214DF2183002F0ADFD0021DE
:103AE0004DF2193002F0A8FD02214DF21A3002F019
:103AF000A3FD01214DF21B3002F09EFD02214DF28B
:103B00001C3002F099FD34214DF21D3002F094FD7D
:103B100002214DF21E3002F08FFD67214DF21F3061
:103B200002F08AFD02214DF2203002F085FD842151
:103B30004DF2213002F080FD02214DF2223002F0E0
:103B40007BFDA4214DF2233002F076FD02214DF2DF
:103B5000243002F071FDB7214DF2253002F06CFDEA
:103B600002214DF2263002F067FDCF214DF22730C1
:103B700002F062FD02214DF2283002F05DFDDE21EF
:103B80004DF2293002F058FD02214DF22A3002F0A8
:103B900053FDF2214DF22B3002F04EFD02214DF289
:103BA0002C3002F049FDFE214DF22D3002F044FD93
:103BB00003214DF22E3002F03FFD10214DF22F3047
:103BC00002F03AFD03214DF2303002F035FD332191
:103BD0004DF2313002F030FD03214DF2323002F06F
:103BE0002BFD6D214DF2333002F026FD00214FF404
:103BF000544002F021FD33214DF2014002F01CFD42
:103C000000214DF2024002F017FD34214DF2034035
:103C100002F012FD00214DF2044002F00DFD3A21A8
:103C20004DF2054002F008FD00214DF2064002F081
:103C300003FD4A214DF2074002F0FEFC00214DF247
:103C4000084002F0F9FC5C214DF2094002F0F4FC5E
:103C500000214DF20A4002F0EFFC81214DF20B40B1
:103C600002F0EAFC00214DF20C4002F0E5FCA62136
:103C70004DF20D4002F0E0FC00214DF20E4002F04A
:103C8000DBFCE5214DF20F4002F0D6FC01214DF2A4
:103C9000104002F0D1FC13214DF2114002F0CCFC97
:103CA00001214DF2124002F0C7FC54214DF21340A5
:103CB00002F0C2FC01214DF2144002F0BDFC822151
:103CC0004DF2154002F0B8FC01214DF2164002F011
:103CD000B3FCCA214DF2174002F0AEFC02214DF2B6
:103CE000184002F0A9FC00214DF2194002F0A4FC9A
:103CF00002214DF21A4002F09FFC01214DF21B40BF
:103D000000E006E302F098FC02214DF21C4002F0B4
:103D100093FC34214DF21D4002F08EFC02214DF245
:103D20001E4002F089FC67214DF21F4002F084FC26
:103D300002214DF2204002F07FFC84214DF221400F
:103D400002F07AFC02214DF2224002F075FCA4211F
:103D50004DF2234002F070FC02214DF2244002F0AB
:103D60006BFCB7214DF2254002F066FC02214DF2BA
:103D7000264002F061FCCF214DF2274002F05CFCAE
:103D800002214DF2284002F057FCDE214DF229407D
:103D900002F052FC02214DF22A4002F04DFCF221C9
:103DA0004DF22B4002F048FC02214DF22C4002F073
:103DB00043FCFE214DF22D4002F03EFC03214DF26A
:103DC0002E4002F039FC10214DF22F4002F034FC5D
:103DD00003214DF2304002F02FFC33214DF23140EF
:103DE00002F02AFC03214DF2324002F025FC6D2145
:103DF0004DF2334002F020FC00214FF4554002F018
:103E00001BFC33214DF2015002F016FC00214DF253
:103E1000025002F011FC34214DF2035002F00CFC70
:103E200000214DF2045002F007FC3A214DF20550FA
:103E300002F002FC00214DF2065002F0FDFB4A2187
:103E40004DF2075002F0F8FB00214DF2085002F04D
:103E5000F3FB5C214DF2095002F0EEFB00214DF224
:103E60000A5002F0E9FB81214DF20B5002F0E4FB15
:103E700000214DF20C5002F0DFFBA6214DF20D5057
:103E800002F0DAFB00214DF20E5002F0D5FBE521E5
:103E90004DF20F5002F0D0FB01214DF2105002F014
:103EA000CBFB13214DF2115002F0C6FB01214DF264
:103EB000125002F0C1FB54214DF2135002F0BCFB32
:103EC00001214DF2145002F0B7FB82214DF2155042
:103ED00002F0B2FB01214DF2165002F0ADFBCA21F7
:103EE0004DF2175002F0A8FB02214DF2185002F0DB
:103EF000A3FB00214DF2195002F09EFB02214DF26E
:103F00001A5002F099FB01214DF21B5002F094FB74
:103F100002214DF21C5002F08FFB34214DF21D5056
:103F200002F08AFB02214DF21E5002F085FB672150
:103F30004DF21F5002F080FB02214DF2205002F0A2
:103F40007BFB84214DF2215002F076FB02214DF2E1
:103F5000225002F071FBA4214DF2235002F06CFBC1
:103F600002214DF2245002F067FBB7214DF225509B
:103F700002F062FB02214DF2265002F05DFBCF21E0
:103F80004DF2275002F058FB02214DF2285002F06A
:103F900053FBDE214DF2295002F04EFB02214DF27F
:103FA0002A5002F049FBF2214DF22B5002F044FB63
:103FB00002214DF22C5002F03FFBFE214DF22D501C
:103FC00002F03AFB03214DF22E5002F035FB102196
:103FD0004DF22F5002F030FB03214DF2305002F031
:103FE0002BFB33214DF2315002F026FB03214DF221
:103FF000325002F021FB6D214DF2335002F01CFBD8
:1040000000214FF4564002F017FB33214DF20160BE
:1040100002F012FB00214DF2026002F00DFB342190
:104020004DF2036002F008FB00214DF2046002F043
:1040300003FB3A214DF2056002F0FEFA00214DF239
:10404000066002F0F9FA4A214DF2076002F0F4FA34
:1040500000214DF2086002F0EFFA5C214DF2096098
:1040600002F0EAFA00214DF20A6002F0E5FA81213D
:104070004DF20B6002F0E0FA00214DF20C6002F00C
:10408000DBFAA6214DF20D6002F0D6FA00214DF2C6
:104090000E6002F0D1FAE5214DF20F6002F0CCFA89
:1040A00001214DF2106002F0C7FA13214DF21160A8
:1040B00002F0C2FA01214DF2126002F0BDFA542161
:1040C0004DF2136002F0B8FA01214DF2146002F0D3
:1040D000B3FA82214DF2156002F0AEFA01214DF2E1
:1040E000166002F0A9FACA214DF2176002F0A4FA94
:1040F00002214DF2186002F09FFA00214DF2196082
:1041000002F09AFA02214DF21A6002F095FA0121AA
:104110004DF21B6002F090FA02214DF21C6002F099
:104120008BFA34214DF21D6002F086FA02214DF225
:104130001E6002F081FA67214DF21F6002F07CFAE6
:1041400002214DF2206002F077FA84214DF22160C5
:1041500002F072FA02214DF2226002F06DFAA421FF
:104160004DF2236002F068FA02214DF2246002F061
:1041700063FAB7214DF2256002F05EFA02214DF29A
:10418000266002F059FACF214DF2276002F054FA6E
:1041900002214DF2286002F04FFADE214DF2296033
:1041A00002F04AFA02214DF22A6002F045FAF221A9
:1041B0004DF22B6002F040FA02214DF22C6002F029
:1041C0003BFAFE214DF22D6002F036FA03214DF24A
:1041D0002E6002F031FA10214DF22F6002F02CFA1D
:1041E00003214DF2306002F027FA33214DF23160A5
:1041F00002F022FA03214DF2326002F01DFA6D2125
:104200004DF2336002F018FA55214FF4704002F07D
:1042100013FAAA214FF2010002F00EFA52214FF2D6
:10422000020002F009FA08214FF2030002F004FA3A
:1042300000214FF2040002F0FFF9CC214FF431408D
:1042400002F0FAF900214BF2011002F0F5F9052114
:104250004FF4364002F0F0F970214FF4374002F08D
:10426000EBF970214BF2017002F0E6F901214FF4F5
:10427000384002F0E1F903214BF6010002F0DCF9CD
:1042800003214BF6020002F0D7F903214BF603009D
:1042900002F0D2F902214FF43C4002F0CDF90021A6
:1042A0004BF6014002F0C8F900214BF6024002F043
:1042B000C3F9D0214FF4494002F0BEF902214CF677
:1042C000011002F0B9F950214CF6021002F0B4F9D5
:1042D00050214CF6031002F0AFF950214CF60410B7
:1042E00002F0AAF900214FF4545002F0A5F955212B
:1042F0004FF4685002F0A0F94FF4885002F082F9B0
:10430000782002F075FD4FF4245002F07BF901F0A3
:10431000DABBFE48808849F2253188427ED147F6D3
:10432000F001E52002F088F94FF48071012002F0DD
:1043300083F94FF4E061022002F07EF941F230018E
:10434000032002F079F90021042002F075F940F20F
:104350000221082002F070F90021092002F06CF916
:1043600000210A2002F068F900210C2002F064F913
:1043700000210D2002F060F900210F2002F05CF90D
:104380000021102002F058F90721112002F054F901
:104390000021122002F050F90021132002F04CF904
:1043A0000021072002F048F941F29061102002F04C
:1043B00043F940F22721112002F03EF99D211220FD
:1043C00002F03AF94FF4C851132002F035F92521D3
:1043D000292002F031F90D212B2002F02DF90721BF
:1043E000302002F029F940F20331312002F024F9A3
:1043F0000321322002F020F940F20621352002F09C
:104400001BF90821362002F017F940F20641372047
:1044100002F012F94FF44171382000E057E002F049
:104420000BF90721392002F007F940F202613C2024
:1044300002F002F908213D2002F0FEF80021502090
:1044400002F0FAF8EF21512002F0F6F80021522094
:1044500002F0F2F840F23F11532002F0EDF84FF471
:104460002741602002F0E8F80121612002F0E4F821
:1044700000216A2002F0E0F80021802002F0DCF840
:104480000021812002F0D8F80021822002F0D4F827
:104490000021832002F0D0F80021842002F0CCF823
:1044A0000021852002F0C8F81021902002F0C4F805
:1044B0004FF4C061922002F0BFF840F233110720A0
:1044C00002F0BAF82221002002F0B6F81FE78F4868
:1044D000808849F2283188427ED141F28F01EC2058
:1044E00002F0AAF841F23421EF2002F0A5F84FF4CF
:1044F0008071012002F0A0F84FF4E061022002F088
:104500009BF841F23001032002F096F800210420CC
:1045100002F092F840F20221082002F08DF800210A
:10452000092002F089F800210A2002F085F8012113
:104530000C2002F081F800210D2002F07DF800210E
:104540000F2002F079F80021102002F075F8072101
:10455000112002F071F80021122002F06DF8002104
:10456000132002F069F80121072002F065F83220DB
:1045700002F034FC41F29041102002F05DF840F26C
:104580002721112002F058F8322002F027FC8A215E
:10459000122002F051F8322002F020FC4FF4D051EA
:1045A000132002F049F80621292002F045F80D21D8
:1045B0002B2002F041F8322002F010FC00212020D4
:1045C00002F03AF80021212002F036F8322002F001
:1045D00005FC0021302000E074E002F02DF840F2EC
:1045E0000461312002F028F840F20531322002F057
:1045F00023F80021352002F01FF840F6094136204B
:1046000002F01AF84FF40171372002F015F840F269
:104610000131382002F010F840F20771392002F021
:104620000BF800213C2002F007F840F60A213D205B
:1046300002F002F8322002F0D1FB0021502001F0FC
:10464000FBFFEF21512001F0F7FF0021522001F084
:10465000F3FF40F23F11532001F0EEFF4FF42741EA
:10466000602001F0E9FF0121612001F0E5FF002158
:104670006A2001F0E1FF0021802001F0DDFF002130
:10468000812001F0D9FF0021822001F0D5FF002117
:10469000832001F0D1FF0021842001F0CDFF002113
:1046A000852001F0C9FF1021902001F0C5FF4FF4D3
:1046B000C061922001F0C0FF40F23311072001F0E9
:1046C000BBFF24E61148808849F2203188427DD121
:1046D0000021084601F0B0FF4FF48071012001F085
:1046E000ABFF4FF4E061022001F0A6FF41F2300180
:1046F000032001F0A1FF0021042001F09DFF40F202
:104700000221082001F098FF002101E0A400002010
:10471000092001F091FF00210A2001F08DFF012105
:104720000C2001F089FF00210D2001F085FF002100
:104730000F2001F081FF322002F050FB40F2011106
:10474000072001F079FF322002F048FB4FF4865138
:10475000102001F071FF0721112001F06DFF4FF4CF
:104760008871122001F068FF4FF43061132001F0CE
:1047700063FF0021292001F05FFF44F210012B208C
:1047800001F05AFF0021502001F056FFEF21512087
:1047900001F052FF0021522001F04EFF40F23F1184
:1047A000532001F049FF4FF41C51602001F044FFF9
:1047B0000121612001F040FF00216A2001F03CFF4F
:1047C0000021802001F038FF002100E031E081204D
:1047D00001F032FF0021822001F02EFF0021832012
:1047E00001F02AFF0021842001F026FF002185200E
:1047F00001F022FF1021902001F01EFF00219220E5
:1048000001F01AFF0121932001F016FF4FF4887187
:10481000952001F011FF0021972001F00DFF0021EC
:10482000982001F009FF40F27311072001F004FF06
:104830006DE5FE48808849F2313188427DD141F2F0
:104840001401E72001F0F8FE4FF48071012001F01F
:10485000F3FE4FF40071022001F0EEFE41F2380148
:10486000032001F0E9FE40F20221082001F0E4FEFD
:104870000021092001F0E0FE00210A2001F0DCFE09
:1048800000210C2001F0D8FE00210D2001F0D4FE03
:1048900000210F2001F0D0FE0021102001F0CCFEFD
:1048A0000721112001F0C8FE0021122001F0C4FEF2
:1048B0000021132001F0C0FEC82002F08FFA41F25F
:1048C0009061102001F0B8FE40F22721112001F084
:1048D000B3FE322002F082FA0C21122001F0ACFE6D
:1048E000322002F07BFA4FF40061132001F0A4FEA5
:1048F0001121292001F0A0FE0B212B2001F09CFEAC
:10490000322002F06BFA0021202001F095FE40F2E7
:104910003F11212001F090FE0021302001F08CFE9B
:104920004FF48371312001F087FE0021322001F025
:1049300083FE4FF40171352000E064E001F07CFE5D
:1049400041F20A61362001F077FE40F2077137200C
:1049500001F072FE4FF48371382001F06DFE40F2D9
:104960000771392001F068FE40F202413C2001F05D
:1049700063FE40F60F413D2001F05EFE0021502015
:1049800001F05AFEEF21512001F056FE0021522085
:1049900001F052FE40F23F11532001F04DFE4FF462
:1049A0001C51602001F048FE0121612001F044FE0D
:1049B00000216A2001F040FE0021802001F03CFE31
:1049C0000021812001F038FE0021822001F034FE18
:1049D0000021832001F030FE0021842001F02CFE14
:1049E0000021852001F028FE1021902001F024FEF6
:1049F0004FF4C061922001F01FFE40F233110720F6
:104A000001F01AFE83E48948808845F20841884213
:104A10007ED14FF48071012001F00EFE4FF4E06171
:104A2000022001F009FE41F23001032001F004FEF2
:104A30000021042001F000FE40F20721082001F0CF
:104A4000FBFD0021092001F0F7FD00210A2001F003
:104A5000F3FD00210C2001F0EFFD00210D2001F0FD
:104A6000EBFD00210F2001F0E7FD142002F0B6F964
:104A700041F2B061102001F0DFFD0121112001F0B1
:104A8000DBFD0121172001F0D7FD4FF49C711220AE
:104A900001F0D2FD4FF40061132001F0CDFD09219A
:104AA000292001F0C9FD09212A2001F0C5FD0021BE
:104AB000A42001F0C1FD0021502001F0BDFDEF2137
:104AC000512001F0B9FD0021522001F0B5FD40F266
:104AD0003F11532001F0B0FD4FF41C51602001F054
:104AE000ABFD0121612001F0A7FD00216A2001F04A
:104AF000A3FD0021802001F09FFD0021812001F015
:104B00009BFD0021822001F097FD0021832000E021
:104B100023E001F091FD0021842001F08DFD0021B2
:104B2000852001F089FD1321902001F085FD0021F1
:104B3000922001F081FD0321932001F07DFD4FF4CF
:104B40008871952001F078FD40F27311072001F083
:104B500073FD322002F042F9B8E43448808841F213
:104B6000055188427ED10021072001F065FD3220E9
:104B700002F034F94FF48E71122001F05DFD012135
:104B8000A42001F059FD0F21082001F055FD082156
:104B90000A2001F051FD08210D2001F04DFD40F2E9
:104BA0000771302001F048FD0721312001F044FD5C
:104BB00040F20361322001F03FFD4FF4E061332009
:104BC00001F03AFD40F20221342001F035FD0221CE
:104BD000352001F031FD41F60F71362001F02CFD3A
:104BE00040F20771372001F027FD0021382001F045
:104BF00023FD0021392001F01FFD40F207713A200A
:104C000001F01AFD00213B2001F016FD07213C2098
:104C100001F012FD00213D2001F00EFD322002F0D6
:104C2000DDF80121072001F007FD01E0A4000020CC
:104C30000121172001F000FD322002F0CFF84FF4DF
:104C4000BD51102001F0F8FC40F21721112001F0B5
:104C5000F3FC4FF48F71122001F0EEFC4FF4706101
:104C6000132000E097E001F0E7FC00212A2001F08A
:104C7000E3FC0A21292001F0DFFC4FF49F71122090
:104C800001F0DAFC0021502001F0D6FCEF21512088
:104C900001F0D2FC0021522001F0CEFC40F23F1185
:104CA000532001F0C9FC4FF41C51602001F0C4FCFA
:104CB0000121612001F0C0FC00216A2001F0BCFC50
:104CC0000021802001F0B8FC0021812001F0B4FC1B
:104CD0000021822001F0B0FC0021832001F0ACFC17
:104CE0000021842001F0A8FC0021852001F0A4FC13
:104CF0001321902001F0A0FC4FF44071922001F0AC
:104D00009BFC0521932001F097FC0021952001F0E8
:104D100093FC0021972001F08FFC0021982001F0E6
:104D20008BFC4FF48071012001F086FC4FF4E061B0
:104D3000022001F081FC41F23801032001F07CFCEB
:104D40000021042001F078FC00210C2001F074FC0B
:104D500000210F2001F070FC0021202001F06CFCEC
:104D60000021212001F068FC2121072001F064FCD2
:104D7000142002F033F86121072001F05DFC1420BB
:104D800002F02CF840F27311072001F055FC1420BA
:104D900002F024F895E4FE4880884BF205518842E1
:104DA0007ED10021084601F047FC0021084601F0B1
:104DB00043FC0021084601F03FFC0021084601F0B9
:104DC0003BFC0121A42001F037FC142002F006F87E
:104DD0004FF41C51602001F02FFC40F2022108200A
:104DE00001F02AFC4FF40571302001F025FC43F25C
:104DF0001571312001F020FC40F20461322001F0F5
:104E00001BFC40F61661332001F016FC42F2112122
:104E1000342001F011FC4FF4A851352001F00CFCB6
:104E200048F20751362001F007FC41F207413720D4
:104E300001F002FC41F20341382001F0FDFB20218A
:104E4000392001F0F9FB1A21902001F0F5FB002137
:104E5000102001F0F1FB0721112001F0EDFB0021F2
:104E6000122001F0E9FB0021132001F0E5FB1420E2
:104E700001F0B4FF4FF4E661102001F0DDFB40F2D9
:104E80003711112001F0D8FB142001F0A7FF4FF4D7
:104E9000DC71122001F0D0FB142001F09FFF00E034
:104EA00083E04FF47061132001F0C6FB80212A20BB
:104EB00001F0C2FB4821292001F0BEFB142001F0C3
:104EC0008DFF4FF48071012001F0B6FB4FF4E061DB
:104ED000022001F0B1FB41F23801032001F0ACFBEC
:104EE00040F20221082001F0A7FB00210A2001F076
:104EF000A3FB00210C2001F09FFB00210D2001F0FD
:104F00009BFB30210E2001F097FB0021502001F087
:104F100093FBEF21512001F08FFB0021522001F083
:104F20008BFB40F23F11532001F086FB4FF41C51E4
:104F3000602001F081FB0121612001F07DFB002157
:104F40006A2001F079FB1121902001F075FB4FF4EC
:104F5000C061922001F070FB40F20241932001F009
:104F60006BFB0221942001F067FB142001F036FF57
:104F70000121072001F060FB142001F02FFF6121C7
:104F8000072001F059FB40F27311072001F054FB98
:104F90000021202001F050FB0021212001F04CFBDA
:104FA0002221002001F048FB42E4794880884CF23D
:104FB000055188427ED10021084601F03DFB0021C9
:104FC000084601F039FB142001F008FF00210846D3
:104FD00001F032FB0021084601F02EFB00210846BB
:104FE00001F02AFB0021084601F026FB0121A42044
:104FF00001F022FB142001F0F1FE4FF41C5160205F
:1050000001F01AFB40F60601082001F015FB40F202
:105010000371302001F010FB0121312001F00CFB65
:105020000421322001F008FB4FF48171332001F09C
:1050300003FB4FF44071342001F0FEFA40F20311FB
:10504000352001F0F9FA1F21362001F0F5FA40F27F
:105050000371372001F0F0FA0121382001F0ECFA59
:105060000421392001F0E8FA1521902001F0E4FA3A
:105070004FF48261102001F0DFFA40F24721112045
:1050800001F0DAFA4FF4DE71122001F0D5FA4FF494
:105090006061132001F0D0FA782001F09FFE4FF4F8
:1050A0008071012001F0C8FA4FF40071022001F074
:1050B000C3FA00E050E041F23001032001F0BCFAF5
:1050C00008210A2001F0B8FA00210C2001F0B4FAFE
:1050D00020210E2001F0B0FA00210F2001F0ACFADF
:1050E0000021202001F0A8FA0021212001F0A4FADB
:1050F0003D212A2001F0A0FA142001F06FFE2D219D
:10510000292001F099FA0021502001F095FA4DF282
:10511000EF01512001F090FA0021522001F08CFAA9
:1051200040F23F11532001F087FA0021612001F085
:1051300083FA00216A2001F07FFA4FF44071922037
:1051400001F07AFA0521932001F076FA4FF480718C
:10515000072001F071FA55E40D48808848F689115E
:1051600088427DD10121002001F066FA4AF6A401AF
:10517000032001F061FA00210C2001F05DFA40F6F5
:105180000C010D2001F058FA4FF42C510E2001E0D3
:10519000A400002001F050FAB0211E2001F04CFACA
:1051A00042F63F31012001F047FA4FF4C06102207E
:1051B00001F042FA0021102001F03EFA46F2780197
:1051C000112001F039FA0021052001F035FA002103
:1051D000062001F031FA4EF61C71162001F02CFA6F
:1051E0000321172001F028FA40F23321072001F0B3
:1051F00023FA00210B2001F01FFA00210F2001F0FB
:105200001BFA0021412001F017FA0021422001F091
:1052100013FA0021482001F00FFA40F23F11492013
:1052200001F00AFA00214A2001F006FA00214B2081
:1052300001F002FA4FF46F41442001F0FDF9002122
:10524000452001F0F9F940F23F11462001F0F4F950
:1052500040F20771302001F0EFF94FF4017100E0E6
:1052600040E0312001F0E8F94FF40171322001F003
:10527000E3F940F20251332001F0DEF940F2075128
:10528000342001F0D9F94FF40171352001F0D4F93F
:105290004FF40171362001F0CFF940F2025137206E
:1052A00001F0CAF940F202313A2001F0C5F940F2AA
:1052B00002313B2001F0C0F90021232001F0BCF9AC
:1052C0000021242001F0B8F94FF40041252001F01D
:1052D000B3F900214F2001F0AFF900214E2001F079
:1052E000ABF9F0E3FE48808844F2315188427DD129
:1052F0000121002001F0A0F90A2001F06FFD41F228
:105300002861102001F098F90E21122001F094F983
:1053100040F63921132001F08FF90A2001F05EFDDB
:105320004021112001F088F95021152001F084F965
:105330000A2001F053FD1E21122001F07DF90A2000
:1053400001F04CFD4FF4B151102001F075F942F617
:105350003921132001F070F90A2001F03FFD4FF4CC
:105360008071012001F068F94FF44071022001F0D2
:1053700063F941F23801032001F05EF940F20221A5
:10538000082001F059F908210A2001F055F90021FF
:10539000302001F051F940F20241312001F04CF986
:1053A0004FF48371322001F047F940F2035133206A
:1053B00001F042F94FF48271342001F03DF940F2DE
:1053C0000131352001F038F940F20771362001F043
:1053D00033F940F20531372001F02EF94FF4027114
:1053E000382001F029F940F60B7100E03CE039204B
:1053F00001F022F90221412001F01EF94FF41C5165
:10540000602001F019F90121612001F015F94FF434
:105410000471902001F010F94FF48571922001F091
:105420000BF90421932001F007F94FF48071A020BB
:1054300001F002F90121072001F0FEF821210720E7
:1054400001F0FAF82321072001F0F6F833210720B4
:1054500001F0F2F840F23311072001F0EDF80021DD
:10546000A02001F0E9F82EE39D48808844F23551F0
:1054700088427CD13021152001F0DEF810219A20DD
:1054800001F0DAF82021112001F0D6F843F228418A
:10549000102001F0D1F80221122001F0CDF841F2E4
:1054A0003801132001F0C8F8282001F097FC1221E0
:1054B000084601F0C1F8282001F090FC43F2204199
:1054C000102001F0B9F843F23801132001F0B4F8CC
:1054D000462001F083FC0021302001F0ADF840F2BD
:1054E0000241312001F0A8F840F20731322001F0EA
:1054F000A3F84FF44171332001F09EF804213420C9
:1055000001F09AF840F20141352001F095F840F29F
:105510000771362001F090F840F20531372001F094
:105520008BF84FF4C261382001F086F84FF4C26165
:10553000392001F081F84FF48071012001F07CF8EE
:105540004FF44071022001F077F841F2300103205E
:1055500001F072F840F60801082001F06DF808210A
:105560000A2001F069F84FF41C51602000E033E09C
:1055700001F062F80121612001F05EF84FF49F71A3
:10558000902001F059F84FF48071922001F054F806
:105590004FF48071932001F04FF84FF44051A02058
:1055A00001F04AF81021A32001F046F8012107205C
:1055B00001F042F82121072001F03EF823210720C5
:1055C00001F03AF83321072001F036F840F23311A8
:1055D000072001F031F876E24148808841F66311F6
:1055E0008842F8D1E22001F00DF84FF480703D4977
:1055F0000861400048611D203B490860802039490E
:1056000048610861800008614010086140004861FD
:1056100002203549086080203249486108618000D5
:105620000861401008614000486104202E4908606C
:1056300080202C494861086180000861642001F0E5
:10564000D7FBE02000F0DEFF4FF4807025490861B1
:1056500040004861012024490860802021494861B8
:105660000861800008610A2001F0B8FBE02000F02A
:10567000C9FF4FF480701B49086140004861032056
:105680001949086080201749486108618000086155
:105690000C2001F0A3FB012000F0B4FF0A2001F070
:1056A0009DFBE62000F0AEFF4FF480700D490861CD
:1056B000400048612F200C4908608020094948615A
:1056C0000861800008614010086140004861FF20C7
:1056D000054908608020034948610861800005E0B1
:1056E000A4000020001001400C0C01400861401093
:1056F000086140004861FF20F94908608020F949AD
:105700004861086180000861B02000F07BFF4FF421
:105710008070F4490861400048612020F049086029
:105720008020F049486108618000086140100861EC
:10573000400048610020EA4908608020E94948614A
:105740000861800008614010086140004861032042
:10575000E34908608020E3494861086180000861EE
:10576000401008614000486140F21F30DC49086089
:105770008020DC49486108618000086140100861B0
:10578000400048610120D64908608020D549486121
:10579000086180000861401008614000486140F2E3
:1057A000DF10CF4908608020CE4948610861800041
:1057B000086140100861400048610020C849086045
:1057C0008020C8494861086180000861B42000F069
:1057D00019FF4FF48070C3490861400048610420FC
:1057E000BF4908608020BF494861086180000861A6
:1057F000401008614000486140F21F40B84908600D
:105800008020B84948610861800008614010086143
:10581000400048610020B24908608020B1494861D9
:1058200008618000086140100861400048612E2036
:10583000AB4908608020AB4948610861800008617D
:1058400040100861400048610020A54908608020A0
:10585000A449486108618000086140100861400067
:10586000486100209E49086080209E494861086187
:10587000800008614010086140004861002098499C
:1058800008608020974948610861800008614010E5
:1058900008614000486100209149086080209149DA
:1058A0004861086180000861B62000F0ABFE4FF44B
:1058B00080708C4908614000486102208849086076
:1058C00080208849486108618000086140100861B3
:1058D000400048614FF4037081490860802081498D
:1058E000486108618000086140100861400048611B
:1058F00000207B49086080207A4948610861800067
:105900000861401008614000486117207449086030
:105910008020744948610861800008614010086176
:105920004000486115206E49086080206D4948613B
:105930000861800008614010086140004861002053
:1059400067490860802067494861086180000861F4
:1059500040100861400048610020614908608020D3
:1059600060494861086180000861F02000F04AFE4B
:105970004FF480705B49086140004861032058493A
:10598000086080205749486108618000086129202B
:1059900000F038FED02000F035FE4FF48070514901
:1059A00008614000486100204D49086080204D4951
:1059B0004861086180000861BE2000F023FE4FF4BA
:1059C00080704849086140004861052044490860EA
:1059D00080204449486108618000086140100861E6
:1059E00040004861FE203E49086080203D494861F2
:1059F0000861800008614010086140004861012092
:105A00003749086080203749486108618000086193
:105A10004010086140004861002031490860802042
:105A20003049486108618000086140100861400009
:105A3000486100202A49086080202A49486108619D
:105A4000800008614010086140004861002024493E
:105A50000860802023494861086180000861B820FF
:105A600000F0D0FD4FF480701E490861400048618D
:105A700003201B49086080201A49486108618000A2
:105A80000861401008614000486101201449086025
:105A9000802014494861086180000861BA2000F044
:105AA000B1FD4FF480700F4908614000486101204A
:105AB0000B49086080200B4948610861800008613B
:105AC000642000F051F80020FBF7DAFF0122910278
:105AD0000448FBF777F84FF6FF70FBF78DFF10BD1A
